{
  "contractName": "FeeManager",
  "abi": [
    {
      "inputs": [
        {
          "internalType": "uint256",
          "name": "_defaultFee",
          "type": "uint256"
        }
      ],
      "stateMutability": "nonpayable",
      "type": "constructor"
    },
    {
      "anonymous": false,
      "inputs": [
        {
          "indexed": false,
          "internalType": "address",
          "name": "partner",
          "type": "address"
        },
        {
          "indexed": false,
          "internalType": "uint256",
          "name": "fee",
          "type": "uint256"
        }
      ],
      "name": "FeeUpdated",
      "type": "event"
    },
    {
      "anonymous": false,
      "inputs": [
        {
          "indexed": true,
          "internalType": "address",
          "name": "previousOwner",
          "type": "address"
        },
        {
          "indexed": true,
          "internalType": "address",
          "name": "newOwner",
          "type": "address"
        }
      ],
      "name": "OwnershipTransferred",
      "type": "event"
    },
    {
      "inputs": [],
      "name": "owner",
      "outputs": [
        {
          "internalType": "address",
          "name": "",
          "type": "address"
        }
      ],
      "stateMutability": "view",
      "type": "function",
      "constant": true
    },
    {
      "inputs": [],
      "name": "renounceOwnership",
      "outputs": [],
      "stateMutability": "nonpayable",
      "type": "function"
    },
    {
      "inputs": [
        {
          "internalType": "address",
          "name": "newOwner",
          "type": "address"
        }
      ],
      "name": "transferOwnership",
      "outputs": [],
      "stateMutability": "nonpayable",
      "type": "function"
    },
    {
      "inputs": [
        {
          "internalType": "address",
          "name": "partner",
          "type": "address"
        },
        {
          "internalType": "uint256",
          "name": "fee",
          "type": "uint256"
        }
      ],
      "name": "setPartnerFee",
      "outputs": [],
      "stateMutability": "nonpayable",
      "type": "function"
    },
    {
      "inputs": [
        {
          "internalType": "uint256",
          "name": "fee",
          "type": "uint256"
        }
      ],
      "name": "setDefaultFee",
      "outputs": [],
      "stateMutability": "nonpayable",
      "type": "function"
    },
    {
      "inputs": [
        {
          "internalType": "address",
          "name": "partner",
          "type": "address"
        },
        {
          "internalType": "uint256",
          "name": "fee",
          "type": "uint256"
        }
      ],
      "name": "updatePartnerFee",
      "outputs": [],
      "stateMutability": "nonpayable",
      "type": "function"
    },
    {
      "inputs": [
        {
          "internalType": "address",
          "name": "partner",
          "type": "address"
        }
      ],
      "name": "getPartnerFee",
      "outputs": [
        {
          "internalType": "uint256",
          "name": "",
          "type": "uint256"
        }
      ],
      "stateMutability": "view",
      "type": "function",
      "constant": true
    }
  ],
  "bytecode": "0x608060405234801561001057600080fd5b506040516106b83803806106b883398101604081905261002f91610078565b600080546001600160a01b031916339081178255604051909182917f8be0079c531659141344cd1fd0a4f28419497f9722a3daafe3b4186f6b6457e0908290a350600155610090565b600060208284031215610089578081fd5b5051919050565b6106198061009f6000396000f3fe608060405234801561001057600080fd5b506004361061007d5760003560e01c8063715018a61161005b578063715018a6146100d05780638da5cb5b146100d8578063c93a6c84146100f3578063f2fde38b1461010657600080fd5b80631de309bf1461008257806337a4dba514610097578063468c75a1146100aa575b600080fd5b610095610090366004610536565b610119565b005b6100956100a5366004610536565b610229565b6100bd6100b8366004610515565b610307565b6040519081526020015b60405180910390f35b61009561034c565b6000546040516001600160a01b0390911681526020016100c7565b61009561010136600461055f565b6103c0565b610095610114366004610515565b61040f565b6000546001600160a01b0316331461014c5760405162461bcd60e51b8152600401610143906105ae565b60405180910390fd5b6000811161016c5760405162461bcd60e51b815260040161014390610577565b6001600160a01b0382166000908152600260205260409020546101d15760405162461bcd60e51b815260206004820152601860248201527f506172746e657220666565206973206e6f74207365742e2000000000000000006044820152606401610143565b6001600160a01b038216600081815260026020908152604091829020849055815192835282018390527f6f0eaf2c2f89fb4cfe96a1dee5e764d60b52c7f48aaa590f0850e308aa1b953a910160405180910390a15050565b6000546001600160a01b031633146102535760405162461bcd60e51b8152600401610143906105ae565b600081116102735760405162461bcd60e51b815260040161014390610577565b6001600160a01b038216600090815260026020526040902054156102eb5760405162461bcd60e51b815260206004820152602960248201527f4564697420706172746e657220666565207265717569726520706172746e657260448201526808185c1c1c9bdd985b60ba1b6064820152608401610143565b6001600160a01b03909116600090815260026020526040902055565b6001600160a01b03811660009081526002602052604081205461032c57600154610346565b6001600160a01b0382166000908152600260205260409020545b92915050565b6000546001600160a01b031633146103765760405162461bcd60e51b8152600401610143906105ae565b600080546040516001600160a01b03909116907f8be0079c531659141344cd1fd0a4f28419497f9722a3daafe3b4186f6b6457e0908390a3600080546001600160a01b0319169055565b6000546001600160a01b031633146103ea5760405162461bcd60e51b8152600401610143906105ae565b6000811161040a5760405162461bcd60e51b815260040161014390610577565b600155565b6000546001600160a01b031633146104395760405162461bcd60e51b8152600401610143906105ae565b6001600160a01b03811661049e5760405162461bcd60e51b815260206004820152602660248201527f4f776e61626c653a206e6577206f776e657220697320746865207a65726f206160448201526564647265737360d01b6064820152608401610143565b600080546040516001600160a01b03808516939216917f8be0079c531659141344cd1fd0a4f28419497f9722a3daafe3b4186f6b6457e091a3600080546001600160a01b0319166001600160a01b0392909216919091179055565b80356001600160a01b038116811461051057600080fd5b919050565b600060208284031215610526578081fd5b61052f826104f9565b9392505050565b60008060408385031215610548578081fd5b610551836104f9565b946020939093013593505050565b600060208284031215610570578081fd5b5035919050565b6020808252601a908201527f466565206d7573742062652067726561746572207468616e2030000000000000604082015260600190565b6020808252818101527f4f776e61626c653a2063616c6c6572206973206e6f7420746865206f776e657260408201526060019056fea2646970667358221220bc48c2472502b7f3f9ab577da2c1a3fa14fe69d54e807b0081b15d33dc0290e464736f6c63430008040033",
  "immutableReferences": {},
  "source": "// contracts/GLDToken.sol\n// SPDX-License-Identifier: MIT\npragma solidity ^0.8.0;\n\nimport \"@openzeppelin/contracts/access/Ownable.sol\";\n\ncontract FeeManager is Ownable {\n    uint256 private defaultFee;\n    mapping(address => uint256) private partnerFeeAggreement;\n\n    constructor(uint _defaultFee){\n        defaultFee = _defaultFee;\n    }\n\n    event FeeUpdated(address partner, uint256 fee);\n\n    function setPartnerFee(address partner, uint256 fee) public onlyOwner {\n        require(fee > 0, \"Fee must be greater than 0\");\n        require(\n            partnerFeeAggreement[partner] == 0,\n            \"Edit partner fee require partner approval\"\n        );\n        partnerFeeAggreement[partner] = fee;\n    }\n\n    // TODO: To be tested\n    function setDefaultFee(uint256 fee) public onlyOwner {\n        require(fee > 0, \"Fee must be greater than 0\");\n\n        defaultFee = fee;\n    }\n\n    function updatePartnerFee(address partner, uint256 fee) public onlyOwner {\n        require(fee > 0, \"Fee must be greater than 0\");\n        require(partnerFeeAggreement[partner] > 0, \"Partner fee is not set. \");\n        partnerFeeAggreement[partner] = fee;\n\n        emit FeeUpdated(partner, fee);\n    }\n\n    function getPartnerFee(address partner) public view returns (uint256) {\n        return\n            partnerFeeAggreement[partner] > 0\n                ? partnerFeeAggreement[partner]\n                : defaultFee;\n    }\n}\n",
  "sourcePath": "/Users/yannick/Desktop/rarepornio/src/contracts/FeeManager.sol",
  "compiler": {
    "name": "solc",
    "version": "0.8.4+commit.c7e474f2.Emscripten.clang"
  },
  "schemaVersion": "3.3.4",
  "updatedAt": "2021-07-01T15:24:02.472Z",
  "networkType": "ethereum",
  "devdoc": {
    "kind": "dev",
    "methods": {
      "owner()": {
        "details": "Returns the address of the current owner."
      },
      "renounceOwnership()": {
        "details": "Leaves the contract without owner. It will not be possible to call `onlyOwner` functions anymore. Can only be called by the current owner. NOTE: Renouncing ownership will leave the contract without an owner, thereby removing any functionality that is only available to the owner."
      },
      "transferOwnership(address)": {
        "details": "Transfers ownership of the contract to a new account (`newOwner`). Can only be called by the current owner."
      }
    },
    "version": 1
  },
  "userdoc": {
    "kind": "user",
    "methods": {},
    "version": 1
  }
}