{
  "contractName": "FeeManager",
  "abi": [
    {
      "anonymous": false,
      "inputs": [
        {
          "indexed": false,
          "internalType": "address",
          "name": "partner",
          "type": "address"
        },
        {
          "indexed": false,
          "internalType": "uint256",
          "name": "fee",
          "type": "uint256"
        }
      ],
      "name": "FeeUpdated",
      "type": "event"
    },
    {
      "anonymous": false,
      "inputs": [
        {
          "indexed": true,
          "internalType": "address",
          "name": "previousOwner",
          "type": "address"
        },
        {
          "indexed": true,
          "internalType": "address",
          "name": "newOwner",
          "type": "address"
        }
      ],
      "name": "OwnershipTransferred",
      "type": "event"
    },
    {
      "inputs": [],
      "name": "owner",
      "outputs": [
        {
          "internalType": "address",
          "name": "",
          "type": "address"
        }
      ],
      "stateMutability": "view",
      "type": "function",
      "constant": true
    },
    {
      "inputs": [],
      "name": "renounceOwnership",
      "outputs": [],
      "stateMutability": "nonpayable",
      "type": "function"
    },
    {
      "inputs": [
        {
          "internalType": "address",
          "name": "newOwner",
          "type": "address"
        }
      ],
      "name": "transferOwnership",
      "outputs": [],
      "stateMutability": "nonpayable",
      "type": "function"
    },
    {
      "inputs": [
        {
          "internalType": "address",
          "name": "partner",
          "type": "address"
        },
        {
          "internalType": "uint256",
          "name": "fee",
          "type": "uint256"
        }
      ],
      "name": "setPartnerFee",
      "outputs": [],
      "stateMutability": "nonpayable",
      "type": "function"
    },
    {
      "inputs": [
        {
          "internalType": "address",
          "name": "partner",
          "type": "address"
        },
        {
          "internalType": "uint256",
          "name": "fee",
          "type": "uint256"
        }
      ],
      "name": "updatePartnerFee",
      "outputs": [],
      "stateMutability": "nonpayable",
      "type": "function"
    },
    {
      "inputs": [
        {
          "internalType": "address",
          "name": "partner",
          "type": "address"
        }
      ],
      "name": "getPartnerFee",
      "outputs": [
        {
          "internalType": "uint256",
          "name": "",
          "type": "uint256"
        }
      ],
      "stateMutability": "view",
      "type": "function",
      "constant": true
    }
  ],
  "bytecode": "0x608060405234801561001057600080fd5b50600080546001600160a01b031916339081178255604051909182917f8be0079c531659141344cd1fd0a4f28419497f9722a3daafe3b4186f6b6457e0908290a35061057e806100616000396000f3fe608060405234801561001057600080fd5b50600436106100625760003560e01c80631de309bf1461006757806337a4dba51461007c578063468c75a11461008f578063715018a6146100cb5780638da5cb5b146100d3578063f2fde38b146100ee575b600080fd5b61007a6100753660046104ea565b610101565b005b61007a61008a3660046104ea565b610241565b6100b861009d3660046104c9565b6001600160a01b031660009081526001602052604090205490565b6040519081526020015b60405180910390f35b61007a61034f565b6000546040516001600160a01b0390911681526020016100c2565b61007a6100fc3660046104c9565b6103c3565b6000546001600160a01b031633146101345760405162461bcd60e51b815260040161012b90610513565b60405180910390fd5b600081116101845760405162461bcd60e51b815260206004820152601a60248201527f466565206d7573742062652067726561746572207468616e2030000000000000604482015260640161012b565b6001600160a01b0382166000908152600160205260409020546101e95760405162461bcd60e51b815260206004820152601860248201527f506172746e657220666565206973206e6f74207365742e200000000000000000604482015260640161012b565b6001600160a01b038216600081815260016020908152604091829020849055815192835282018390527f6f0eaf2c2f89fb4cfe96a1dee5e764d60b52c7f48aaa590f0850e308aa1b953a910160405180910390a15050565b6000546001600160a01b0316331461026b5760405162461bcd60e51b815260040161012b90610513565b600081116102bb5760405162461bcd60e51b815260206004820152601a60248201527f466565206d7573742062652067726561746572207468616e2030000000000000604482015260640161012b565b6001600160a01b038216600090815260016020526040902054156103335760405162461bcd60e51b815260206004820152602960248201527f4564697420706172746e657220666565207265717569726520706172746e657260448201526808185c1c1c9bdd985b60ba1b606482015260840161012b565b6001600160a01b03909116600090815260016020526040902055565b6000546001600160a01b031633146103795760405162461bcd60e51b815260040161012b90610513565b600080546040516001600160a01b03909116907f8be0079c531659141344cd1fd0a4f28419497f9722a3daafe3b4186f6b6457e0908390a3600080546001600160a01b0319169055565b6000546001600160a01b031633146103ed5760405162461bcd60e51b815260040161012b90610513565b6001600160a01b0381166104525760405162461bcd60e51b815260206004820152602660248201527f4f776e61626c653a206e6577206f776e657220697320746865207a65726f206160448201526564647265737360d01b606482015260840161012b565b600080546040516001600160a01b03808516939216917f8be0079c531659141344cd1fd0a4f28419497f9722a3daafe3b4186f6b6457e091a3600080546001600160a01b0319166001600160a01b0392909216919091179055565b80356001600160a01b03811681146104c457600080fd5b919050565b6000602082840312156104da578081fd5b6104e3826104ad565b9392505050565b600080604083850312156104fc578081fd5b610505836104ad565b946020939093013593505050565b6020808252818101527f4f776e61626c653a2063616c6c6572206973206e6f7420746865206f776e657260408201526060019056fea26469706673582212208d9a1bfc1e2cab3a89891eb1a0c7b67ca6f39c18a119bd9851689a5209a4bae364736f6c63430008040033",
  "immutableReferences": {},
  "source": "// contracts/GLDToken.sol\n// SPDX-License-Identifier: MIT\npragma solidity ^0.8.0;\n\nimport \"@openzeppelin/contracts/access/Ownable.sol\";\n\ncontract FeeManager is Ownable {\n    mapping(address => uint256) private partnerFeeAggreement;\n    // mapping(address => uint) private pendingAggreement;\n\n    event FeeUpdated(address partner, uint256 fee);\n\n    function setPartnerFee(address partner, uint256 fee) public onlyOwner {\n        require(fee > 0, \"Fee must be greater than 0\");\n        require(\n            partnerFeeAggreement[partner] == 0,\n            \"Edit partner fee require partner approval\"\n        );\n        partnerFeeAggreement[partner] = fee;\n    }\n\n    function updatePartnerFee(address partner, uint256 fee) public onlyOwner {\n        require(fee > 0, \"Fee must be greater than 0\");\n        require(partnerFeeAggreement[partner] > 0, \"Partner fee is not set. \");\n        partnerFeeAggreement[partner] = fee;\n\n        emit FeeUpdated(partner, fee);\n    }\n\n    function getPartnerFee(address partner) public view returns (uint256) {\n        return partnerFeeAggreement[partner];\n    }\n}\n",
  "sourcePath": "/Users/yannick/Desktop/rarepornio/src/contracts/FeeManager.sol",
  "compiler": {
    "name": "solc",
    "version": "0.8.4+commit.c7e474f2.Emscripten.clang"
  },
  "schemaVersion": "3.3.4",
  "updatedAt": "2021-06-15T14:05:06.114Z",
  "networkType": "ethereum",
  "devdoc": {
    "kind": "dev",
    "methods": {
      "owner()": {
        "details": "Returns the address of the current owner."
      },
      "renounceOwnership()": {
        "details": "Leaves the contract without owner. It will not be possible to call `onlyOwner` functions anymore. Can only be called by the current owner. NOTE: Renouncing ownership will leave the contract without an owner, thereby removing any functionality that is only available to the owner."
      },
      "transferOwnership(address)": {
        "details": "Transfers ownership of the contract to a new account (`newOwner`). Can only be called by the current owner."
      }
    },
    "version": 1
  },
  "userdoc": {
    "kind": "user",
    "methods": {},
    "version": 1
  }
}