{
  "contractName": "NFTToken",
  "abi": [
    {
      "inputs": [
        {
          "internalType": "string",
          "name": "_baseURI_",
          "type": "string"
        }
      ],
      "stateMutability": "nonpayable",
      "type": "constructor"
    },
    {
      "anonymous": false,
      "inputs": [
        {
          "indexed": true,
          "internalType": "address",
          "name": "owner",
          "type": "address"
        },
        {
          "indexed": true,
          "internalType": "address",
          "name": "approved",
          "type": "address"
        },
        {
          "indexed": true,
          "internalType": "uint256",
          "name": "tokenId",
          "type": "uint256"
        }
      ],
      "name": "Approval",
      "type": "event"
    },
    {
      "anonymous": false,
      "inputs": [
        {
          "indexed": true,
          "internalType": "address",
          "name": "owner",
          "type": "address"
        },
        {
          "indexed": true,
          "internalType": "address",
          "name": "operator",
          "type": "address"
        },
        {
          "indexed": false,
          "internalType": "bool",
          "name": "approved",
          "type": "bool"
        }
      ],
      "name": "ApprovalForAll",
      "type": "event"
    },
    {
      "anonymous": false,
      "inputs": [
        {
          "indexed": true,
          "internalType": "address",
          "name": "previousOwner",
          "type": "address"
        },
        {
          "indexed": true,
          "internalType": "address",
          "name": "newOwner",
          "type": "address"
        }
      ],
      "name": "OwnershipTransferred",
      "type": "event"
    },
    {
      "anonymous": false,
      "inputs": [
        {
          "indexed": true,
          "internalType": "address",
          "name": "from",
          "type": "address"
        },
        {
          "indexed": true,
          "internalType": "address",
          "name": "to",
          "type": "address"
        },
        {
          "indexed": true,
          "internalType": "uint256",
          "name": "tokenId",
          "type": "uint256"
        }
      ],
      "name": "Transfer",
      "type": "event"
    },
    {
      "inputs": [
        {
          "internalType": "address",
          "name": "to",
          "type": "address"
        },
        {
          "internalType": "uint256",
          "name": "tokenId",
          "type": "uint256"
        }
      ],
      "name": "approve",
      "outputs": [],
      "stateMutability": "nonpayable",
      "type": "function"
    },
    {
      "inputs": [
        {
          "internalType": "address",
          "name": "owner",
          "type": "address"
        }
      ],
      "name": "balanceOf",
      "outputs": [
        {
          "internalType": "uint256",
          "name": "",
          "type": "uint256"
        }
      ],
      "stateMutability": "view",
      "type": "function",
      "constant": true
    },
    {
      "inputs": [
        {
          "internalType": "uint256",
          "name": "tokenId",
          "type": "uint256"
        }
      ],
      "name": "getApproved",
      "outputs": [
        {
          "internalType": "address",
          "name": "",
          "type": "address"
        }
      ],
      "stateMutability": "view",
      "type": "function",
      "constant": true
    },
    {
      "inputs": [
        {
          "internalType": "address",
          "name": "owner",
          "type": "address"
        },
        {
          "internalType": "address",
          "name": "operator",
          "type": "address"
        }
      ],
      "name": "isApprovedForAll",
      "outputs": [
        {
          "internalType": "bool",
          "name": "",
          "type": "bool"
        }
      ],
      "stateMutability": "view",
      "type": "function",
      "constant": true
    },
    {
      "inputs": [],
      "name": "name",
      "outputs": [
        {
          "internalType": "string",
          "name": "",
          "type": "string"
        }
      ],
      "stateMutability": "view",
      "type": "function",
      "constant": true
    },
    {
      "inputs": [],
      "name": "owner",
      "outputs": [
        {
          "internalType": "address",
          "name": "",
          "type": "address"
        }
      ],
      "stateMutability": "view",
      "type": "function",
      "constant": true
    },
    {
      "inputs": [
        {
          "internalType": "uint256",
          "name": "tokenId",
          "type": "uint256"
        }
      ],
      "name": "ownerOf",
      "outputs": [
        {
          "internalType": "address",
          "name": "",
          "type": "address"
        }
      ],
      "stateMutability": "view",
      "type": "function",
      "constant": true
    },
    {
      "inputs": [],
      "name": "renounceOwnership",
      "outputs": [],
      "stateMutability": "nonpayable",
      "type": "function"
    },
    {
      "inputs": [
        {
          "internalType": "address",
          "name": "from",
          "type": "address"
        },
        {
          "internalType": "address",
          "name": "to",
          "type": "address"
        },
        {
          "internalType": "uint256",
          "name": "tokenId",
          "type": "uint256"
        }
      ],
      "name": "safeTransferFrom",
      "outputs": [],
      "stateMutability": "nonpayable",
      "type": "function"
    },
    {
      "inputs": [
        {
          "internalType": "address",
          "name": "from",
          "type": "address"
        },
        {
          "internalType": "address",
          "name": "to",
          "type": "address"
        },
        {
          "internalType": "uint256",
          "name": "tokenId",
          "type": "uint256"
        },
        {
          "internalType": "bytes",
          "name": "_data",
          "type": "bytes"
        }
      ],
      "name": "safeTransferFrom",
      "outputs": [],
      "stateMutability": "nonpayable",
      "type": "function"
    },
    {
      "inputs": [
        {
          "internalType": "address",
          "name": "operator",
          "type": "address"
        },
        {
          "internalType": "bool",
          "name": "approved",
          "type": "bool"
        }
      ],
      "name": "setApprovalForAll",
      "outputs": [],
      "stateMutability": "nonpayable",
      "type": "function"
    },
    {
      "inputs": [],
      "name": "symbol",
      "outputs": [
        {
          "internalType": "string",
          "name": "",
          "type": "string"
        }
      ],
      "stateMutability": "view",
      "type": "function",
      "constant": true
    },
    {
      "inputs": [
        {
          "internalType": "uint256",
          "name": "tokenId",
          "type": "uint256"
        }
      ],
      "name": "tokenURI",
      "outputs": [
        {
          "internalType": "string",
          "name": "",
          "type": "string"
        }
      ],
      "stateMutability": "view",
      "type": "function",
      "constant": true
    },
    {
      "inputs": [
        {
          "internalType": "address",
          "name": "from",
          "type": "address"
        },
        {
          "internalType": "address",
          "name": "to",
          "type": "address"
        },
        {
          "internalType": "uint256",
          "name": "tokenId",
          "type": "uint256"
        }
      ],
      "name": "transferFrom",
      "outputs": [],
      "stateMutability": "nonpayable",
      "type": "function"
    },
    {
      "inputs": [
        {
          "internalType": "address",
          "name": "newOwner",
          "type": "address"
        }
      ],
      "name": "transferOwnership",
      "outputs": [],
      "stateMutability": "nonpayable",
      "type": "function"
    },
    {
      "inputs": [
        {
          "internalType": "bytes4",
          "name": "interfaceId",
          "type": "bytes4"
        }
      ],
      "name": "supportsInterface",
      "outputs": [
        {
          "internalType": "bool",
          "name": "",
          "type": "bool"
        }
      ],
      "stateMutability": "view",
      "type": "function",
      "constant": true
    },
    {
      "inputs": [
        {
          "internalType": "uint256",
          "name": "_tokenId",
          "type": "uint256"
        },
        {
          "internalType": "uint256",
          "name": "_value",
          "type": "uint256"
        }
      ],
      "name": "royaltyInfo",
      "outputs": [
        {
          "internalType": "address",
          "name": "_receiver",
          "type": "address"
        },
        {
          "internalType": "uint256",
          "name": "_royaltyAmount",
          "type": "uint256"
        }
      ],
      "stateMutability": "view",
      "type": "function",
      "constant": true
    },
    {
      "inputs": [
        {
          "internalType": "uint256",
          "name": "tokenId",
          "type": "uint256"
        },
        {
          "internalType": "address",
          "name": "royaltyRecipient",
          "type": "address"
        },
        {
          "internalType": "uint256",
          "name": "royaltyPercentage",
          "type": "uint256"
        },
        {
          "internalType": "string",
          "name": "_uri",
          "type": "string"
        }
      ],
      "name": "mint",
      "outputs": [],
      "stateMutability": "nonpayable",
      "type": "function"
    },
    {
      "inputs": [
        {
          "internalType": "string",
          "name": "_baseUri",
          "type": "string"
        }
      ],
      "name": "setBaseURI",
      "outputs": [],
      "stateMutability": "nonpayable",
      "type": "function"
    }
  ],
  "bytecode": "0x60806040523480156200001157600080fd5b5060405162001ea238038062001ea283398101604081905262000034916200023b565b60408051808201825260088152672930b932a837b93760c11b60208083019182528351808501909452600384526204e46560ec1b9084015281519192916200007f9160009162000195565b5080516200009590600190602084019062000195565b5050506000620000aa6200010a60201b60201c565b600780546001600160a01b0319166001600160a01b038316908117909155604051919250906000907f8be0079c531659141344cd1fd0a4f28419497f9722a3daafe3b4186f6b6457e0908290a35062000103816200010e565b5062000364565b3390565b6007546001600160a01b031633146200016d5760405162461bcd60e51b815260206004820181905260248201527f4f776e61626c653a2063616c6c6572206973206e6f7420746865206f776e6572604482015260640160405180910390fd5b60008151116200017c57600080fd5b80516200019190600890602084019062000195565b5050565b828054620001a39062000311565b90600052602060002090601f016020900481019282620001c7576000855562000212565b82601f10620001e257805160ff191683800117855562000212565b8280016001018555821562000212579182015b8281111562000212578251825591602001919060010190620001f5565b506200022092915062000224565b5090565b5b8082111562000220576000815560010162000225565b600060208083850312156200024e578182fd5b82516001600160401b038082111562000265578384fd5b818501915085601f83011262000279578384fd5b8151818111156200028e576200028e6200034e565b604051601f8201601f19908116603f01168101908382118183101715620002b957620002b96200034e565b816040528281528886848701011115620002d1578687fd5b8693505b82841015620002f45784840186015181850187015292850192620002d5565b828411156200030557868684830101525b98975050505050505050565b600181811c908216806200032657607f821691505b602082108114156200034857634e487b7160e01b600052602260045260246000fd5b50919050565b634e487b7160e01b600052604160045260246000fd5b611b2e80620003746000396000f3fe608060405234801561001057600080fd5b50600436106101215760003560e01c806370a08231116100ad578063af131f5011610071578063af131f5014610276578063b88d4fde14610289578063c87b56dd1461029c578063e985e9c5146102af578063f2fde38b146102eb57600080fd5b806370a0823114610221578063715018a6146102425780638da5cb5b1461024a57806395d89b411461025b578063a22cb4651461026357600080fd5b806323b872dd116100f457806323b872dd146101a35780632a55205a146101b657806342842e0e146101e857806355f804b3146101fb5780636352211e1461020e57600080fd5b806301ffc9a71461012657806306fdde031461014e578063081812fc14610163578063095ea7b31461018e575b600080fd5b61013961013436600461172b565b6102fe565b60405190151581526020015b60405180910390f35b610156610329565b60405161014591906118ba565b610176610171366004611796565b6103bb565b6040516001600160a01b039091168152602001610145565b6101a161019c366004611702565b610448565b005b6101a16101b1366004611614565b61055e565b6101c96101c4366004611801565b61058f565b604080516001600160a01b039093168352602083019190915201610145565b6101a16101f6366004611614565b6105e8565b6101a1610209366004611763565b610603565b61017661021c366004611796565b610652565b61023461022f3660046115c8565b6106c9565b604051908152602001610145565b6101a1610750565b6007546001600160a01b0316610176565b6101566107c4565b6101a16102713660046116c8565b6107d3565b6101a16102843660046117ae565b610898565b6101a161029736600461164f565b6108bd565b6101566102aa366004611796565b6108ef565b6101396102bd3660046115e2565b6001600160a01b03918216600090815260056020908152604080832093909416825291909152205460ff1690565b6101a16102f93660046115c8565b610a59565b60006001600160e01b0319821663152a902d60e11b1480610323575061032382610b44565b92915050565b60606000805461033890611a33565b80601f016020809104026020016040519081016040528092919081815260200182805461036490611a33565b80156103b15780601f10610386576101008083540402835291602001916103b1565b820191906000526020600020905b81548152906001019060200180831161039457829003601f168201915b5050505050905090565b60006103c682610b94565b61042c5760405162461bcd60e51b815260206004820152602c60248201527f4552433732313a20617070726f76656420717565727920666f72206e6f6e657860448201526b34b9ba32b73a103a37b5b2b760a11b60648201526084015b60405180910390fd5b506000908152600460205260409020546001600160a01b031690565b600061045382610652565b9050806001600160a01b0316836001600160a01b031614156104c15760405162461bcd60e51b815260206004820152602160248201527f4552433732313a20617070726f76616c20746f2063757272656e74206f776e656044820152603960f91b6064820152608401610423565b336001600160a01b03821614806104dd57506104dd81336102bd565b61054f5760405162461bcd60e51b815260206004820152603860248201527f4552433732313a20617070726f76652063616c6c6572206973206e6f74206f7760448201527f6e6572206e6f7220617070726f76656420666f7220616c6c00000000000000006064820152608401610423565b6105598383610bb1565b505050565b6105683382610c1f565b6105845760405162461bcd60e51b815260040161042390611954565b610559838383610d05565b6000828152600960209081526040808320815180830190925280546001600160a01b03168083526001909101549282018390528392612710906105d290876119d1565b6105dc91906119bd565b92509250509250929050565b610559838383604051806020016040528060008152506108bd565b6007546001600160a01b0316331461062d5760405162461bcd60e51b81526004016104239061191f565b600081511161063b57600080fd5b805161064e90600890602084019061147e565b5050565b6000818152600260205260408120546001600160a01b0316806103235760405162461bcd60e51b815260206004820152602960248201527f4552433732313a206f776e657220717565727920666f72206e6f6e657869737460448201526832b73a103a37b5b2b760b91b6064820152608401610423565b60006001600160a01b0382166107345760405162461bcd60e51b815260206004820152602a60248201527f4552433732313a2062616c616e636520717565727920666f7220746865207a65604482015269726f206164647265737360b01b6064820152608401610423565b506001600160a01b031660009081526003602052604090205490565b6007546001600160a01b0316331461077a5760405162461bcd60e51b81526004016104239061191f565b6007546040516000916001600160a01b0316907f8be0079c531659141344cd1fd0a4f28419497f9722a3daafe3b4186f6b6457e0908390a3600780546001600160a01b0319169055565b60606001805461033890611a33565b6001600160a01b03821633141561082c5760405162461bcd60e51b815260206004820152601960248201527f4552433732313a20617070726f766520746f2063616c6c6572000000000000006044820152606401610423565b3360008181526005602090815260408083206001600160a01b03871680855290835292819020805460ff191686151590811790915590519081529192917f17307eab39ab6107e8899845ad3d59bd9653f200f220920489ca2b5937696c31910160405180910390a35050565b6108a23385610ea5565b6108ac8482610ebf565b6108b7848484610f4a565b50505050565b6108c73383610c1f565b6108e35760405162461bcd60e51b815260040161042390611954565b6108b784848484610fe4565b60606108fa82610b94565b6109605760405162461bcd60e51b815260206004820152603160248201527f45524337323155524953746f726167653a2055524920717565727920666f72206044820152703737b732bc34b9ba32b73a103a37b5b2b760791b6064820152608401610423565b6000828152600660205260408120805461097990611a33565b80601f01602080910402602001604051908101604052809291908181526020018280546109a590611a33565b80156109f25780601f106109c7576101008083540402835291602001916109f2565b820191906000526020600020905b8154815290600101906020018083116109d557829003601f168201915b505050505090506000610a03611017565b9050805160001415610a16575092915050565b815115610a48578082604051602001610a3092919061184e565b60405160208183030381529060405292505050919050565b610a5184611026565b949350505050565b6007546001600160a01b03163314610a835760405162461bcd60e51b81526004016104239061191f565b6001600160a01b038116610ae85760405162461bcd60e51b815260206004820152602660248201527f4f776e61626c653a206e6577206f776e657220697320746865207a65726f206160448201526564647265737360d01b6064820152608401610423565b6007546040516001600160a01b038084169216907f8be0079c531659141344cd1fd0a4f28419497f9722a3daafe3b4186f6b6457e090600090a3600780546001600160a01b0319166001600160a01b0392909216919091179055565b60006001600160e01b031982166380ac58cd60e01b1480610b7557506001600160e01b03198216635b5e139f60e01b145b8061032357506301ffc9a760e01b6001600160e01b0319831614610323565b6000908152600260205260409020546001600160a01b0316151590565b600081815260046020526040902080546001600160a01b0319166001600160a01b0384169081179091558190610be682610652565b6001600160a01b03167f8c5be1e5ebec7d5bd14f71427d1e84f3dd0314c0f7b2291e5b200ac8c7c3b92560405160405180910390a45050565b6000610c2a82610b94565b610c8b5760405162461bcd60e51b815260206004820152602c60248201527f4552433732313a206f70657261746f7220717565727920666f72206e6f6e657860448201526b34b9ba32b73a103a37b5b2b760a11b6064820152608401610423565b6000610c9683610652565b9050806001600160a01b0316846001600160a01b03161480610cd15750836001600160a01b0316610cc6846103bb565b6001600160a01b0316145b80610a5157506001600160a01b0380821660009081526005602090815260408083209388168352929052205460ff16610a51565b826001600160a01b0316610d1882610652565b6001600160a01b031614610d805760405162461bcd60e51b815260206004820152602960248201527f4552433732313a207472616e73666572206f6620746f6b656e2074686174206960448201526839903737ba1037bbb760b91b6064820152608401610423565b6001600160a01b038216610de25760405162461bcd60e51b8152602060048201526024808201527f4552433732313a207472616e7366657220746f20746865207a65726f206164646044820152637265737360e01b6064820152608401610423565b610ded600082610bb1565b6001600160a01b0383166000908152600360205260408120805460019290610e169084906119f0565b90915550506001600160a01b0382166000908152600360205260408120805460019290610e449084906119a5565b909155505060008181526002602052604080822080546001600160a01b0319166001600160a01b0386811691821790925591518493918716917fddf252ad1be2c89b69c2b068fc378daa952ba7f163c4a11628f55a4df523b3ef91a4505050565b61064e8282604051806020016040528060008152506110f1565b610ec882610b94565b610f2b5760405162461bcd60e51b815260206004820152602e60248201527f45524337323155524953746f726167653a2055524920736574206f66206e6f6e60448201526d32bc34b9ba32b73a103a37b5b2b760911b6064820152608401610423565b600082815260066020908152604090912082516105599284019061147e565b612710811115610f9c5760405162461bcd60e51b815260206004820152601a60248201527f45524332393831526f79616c746965733a20546f6f20686967680000000000006044820152606401610423565b6040805180820182526001600160a01b03938416815260208082019384526000958652600990529320925183546001600160a01b031916921691909117825551600190910155565b610fef848484610d05565b610ffb84848484611124565b6108b75760405162461bcd60e51b8152600401610423906118cd565b60606008805461033890611a33565b606061103182610b94565b6110955760405162461bcd60e51b815260206004820152602f60248201527f4552433732314d657461646174613a2055524920717565727920666f72206e6f60448201526e3732bc34b9ba32b73a103a37b5b2b760891b6064820152608401610423565b600061109f611017565b905060008151116110bf57604051806020016040528060008152506110ea565b806110c984611231565b6040516020016110da92919061184e565b6040516020818303038152906040525b9392505050565b6110fb838361134b565b6111086000848484611124565b6105595760405162461bcd60e51b8152600401610423906118cd565b60006001600160a01b0384163b1561122657604051630a85bd0160e11b81526001600160a01b0385169063150b7a029061116890339089908890889060040161187d565b602060405180830381600087803b15801561118257600080fd5b505af19250505080156111b2575060408051601f3d908101601f191682019092526111af91810190611747565b60015b61120c573d8080156111e0576040519150601f19603f3d011682016040523d82523d6000602084013e6111e5565b606091505b5080516112045760405162461bcd60e51b8152600401610423906118cd565b805181602001fd5b6001600160e01b031916630a85bd0160e11b149050610a51565b506001949350505050565b6060816112555750506040805180820190915260018152600360fc1b602082015290565b8160005b811561127f578061126981611a6e565b91506112789050600a836119bd565b9150611259565b60008167ffffffffffffffff8111156112a857634e487b7160e01b600052604160045260246000fd5b6040519080825280601f01601f1916602001820160405280156112d2576020820181803683370190505b5090505b8415610a51576112e76001836119f0565b91506112f4600a86611a89565b6112ff9060306119a5565b60f81b81838151811061132257634e487b7160e01b600052603260045260246000fd5b60200101906001600160f81b031916908160001a905350611344600a866119bd565b94506112d6565b6001600160a01b0382166113a15760405162461bcd60e51b815260206004820181905260248201527f4552433732313a206d696e7420746f20746865207a65726f20616464726573736044820152606401610423565b6113aa81610b94565b156113f75760405162461bcd60e51b815260206004820152601c60248201527f4552433732313a20746f6b656e20616c7265616479206d696e746564000000006044820152606401610423565b6001600160a01b03821660009081526003602052604081208054600192906114209084906119a5565b909155505060008181526002602052604080822080546001600160a01b0319166001600160a01b03861690811790915590518392907fddf252ad1be2c89b69c2b068fc378daa952ba7f163c4a11628f55a4df523b3ef908290a45050565b82805461148a90611a33565b90600052602060002090601f0160209004810192826114ac57600085556114f2565b82601f106114c557805160ff19168380011785556114f2565b828001600101855582156114f2579182015b828111156114f25782518255916020019190600101906114d7565b506114fe929150611502565b5090565b5b808211156114fe5760008155600101611503565b600067ffffffffffffffff8084111561153257611532611ac9565b604051601f8501601f19908116603f0116810190828211818310171561155a5761155a611ac9565b8160405280935085815286868601111561157357600080fd5b858560208301376000602087830101525050509392505050565b80356001600160a01b03811681146115a457600080fd5b919050565b600082601f8301126115b9578081fd5b6110ea83833560208501611517565b6000602082840312156115d9578081fd5b6110ea8261158d565b600080604083850312156115f4578081fd5b6115fd8361158d565b915061160b6020840161158d565b90509250929050565b600080600060608486031215611628578081fd5b6116318461158d565b925061163f6020850161158d565b9150604084013590509250925092565b60008060008060808587031215611664578081fd5b61166d8561158d565b935061167b6020860161158d565b925060408501359150606085013567ffffffffffffffff81111561169d578182fd5b8501601f810187136116ad578182fd5b6116bc87823560208401611517565b91505092959194509250565b600080604083850312156116da578182fd5b6116e38361158d565b9150602083013580151581146116f7578182fd5b809150509250929050565b60008060408385031215611714578182fd5b61171d8361158d565b946020939093013593505050565b60006020828403121561173c578081fd5b81356110ea81611adf565b600060208284031215611758578081fd5b81516110ea81611adf565b600060208284031215611774578081fd5b813567ffffffffffffffff81111561178a578182fd5b610a51848285016115a9565b6000602082840312156117a7578081fd5b5035919050565b600080600080608085870312156117c3578384fd5b843593506117d36020860161158d565b925060408501359150606085013567ffffffffffffffff8111156117f5578182fd5b6116bc878288016115a9565b60008060408385031215611813578182fd5b50508035926020909101359150565b6000815180845261183a816020860160208601611a07565b601f01601f19169290920160200192915050565b60008351611860818460208801611a07565b835190830190611874818360208801611a07565b01949350505050565b6001600160a01b03858116825284166020820152604081018390526080606082018190526000906118b090830184611822565b9695505050505050565b6020815260006110ea6020830184611822565b60208082526032908201527f4552433732313a207472616e7366657220746f206e6f6e20455243373231526560408201527131b2b4bb32b91034b6b83632b6b2b73a32b960711b606082015260800190565b6020808252818101527f4f776e61626c653a2063616c6c6572206973206e6f7420746865206f776e6572604082015260600190565b60208082526031908201527f4552433732313a207472616e736665722063616c6c6572206973206e6f74206f6040820152701ddb995c881b9bdc88185c1c1c9bdd9959607a1b606082015260800190565b600082198211156119b8576119b8611a9d565b500190565b6000826119cc576119cc611ab3565b500490565b60008160001904831182151516156119eb576119eb611a9d565b500290565b600082821015611a0257611a02611a9d565b500390565b60005b83811015611a22578181015183820152602001611a0a565b838111156108b75750506000910152565b600181811c90821680611a4757607f821691505b60208210811415611a6857634e487b7160e01b600052602260045260246000fd5b50919050565b6000600019821415611a8257611a82611a9d565b5060010190565b600082611a9857611a98611ab3565b500690565b634e487b7160e01b600052601160045260246000fd5b634e487b7160e01b600052601260045260246000fd5b634e487b7160e01b600052604160045260246000fd5b6001600160e01b031981168114611af557600080fd5b5056fea2646970667358221220d0e06f3760c2e3c605542578432de3a50b22ca513b508adbdf8a28bf900a3ddb64736f6c63430008040033",
  "immutableReferences": {},
  "source": "// contracts/GLDToken.sol\n// SPDX-License-Identifier: MIT\npragma solidity ^0.8.0;\n\nimport \"@openzeppelin/contracts/token/ERC721/ERC721.sol\";\nimport \"@openzeppelin/contracts/token/ERC721/extensions/ERC721URIStorage.sol\";\nimport \"@openzeppelin/contracts/access/Ownable.sol\";\nimport \"./IERC2981Royalties.sol\";\n\ncontract NFTToken is ERC721URIStorage, Ownable, IERC2981Royalties {\n    struct Royalty {\n        address recipient;\n        uint256 value;\n    }\n    string internal baseUri;\n    mapping(uint256 => Royalty) internal _royalties;\n\n    constructor(string memory _baseURI_) ERC721(\"RarePorn\", \"NFP\") {\n        setBaseURI(_baseURI_);\n    }\n\n    function supportsInterface(bytes4 interfaceId)\n        public\n        view\n        virtual\n        override\n        returns (bool)\n    {\n        return interfaceId == type(IERC2981Royalties).interfaceId\n            || super.supportsInterface(interfaceId);\n    }\n\n    /// @dev Sets token royalties\n    /// @param id the token id fir which we register the royalties\n    /// @param recipient recipient of the royalties\n    /// @param value percentage (using 2 decimals - 10000 = 100, 0 = 0)\n    function _setTokenRoyalty(\n        uint id,\n        address recipient,\n        uint256 value\n    ) internal {\n        require(value <= 10000, 'ERC2981Royalties: Too high');\n\n        _royalties[id] = Royalty(recipient, value);\n    }\n\n    /// @notice Called with the sale price to determine how much royalty is owed and to whom.\n    /// @param _tokenId - the NFT asset queried for royalty information\n    /// @param _value - the sale price of the NFT asset specified by _tokenId\n    /// @return _receiver - address of who should be sent the royalty payment\n    /// @return _royaltyAmount - the royalty payment amount for value sale price\n    function royaltyInfo(uint256 _tokenId, uint256 _value)\n        external\n        override\n        view\n        returns (address _receiver, uint256 _royaltyAmount)\n    {\n        Royalty memory royalty = _royalties[_tokenId];\n        return (royalty.recipient, (_value * royalty.value) / 10000);\n    }\n\n    function mint(uint tokenId, address royaltyRecipient, uint royaltyPercentage, string memory _uri) public {\n        _safeMint(msg.sender, tokenId);\n        _setTokenURI(tokenId, _uri);\n        _setTokenRoyalty(tokenId, royaltyRecipient, royaltyPercentage);\n    } \n\n    /**\n     * @dev Base URI for computing {tokenURI}. Empty by default, can be overriden\n     * in child contracts.\n     */\n    function _baseURI() internal view virtual override returns (string memory) {\n        return baseUri;\n    }\n\n    function setBaseURI(string memory _baseUri) public onlyOwner {\n        require(bytes(_baseUri).length > 0);\n        baseUri = _baseUri;\n    }\n}",
  "sourcePath": "/Users/yannick/Desktop/rarepornio/src/contracts/NFTToken.sol",
  "compiler": {
    "name": "solc",
    "version": "0.8.4+commit.c7e474f2.Emscripten.clang"
  },
  "schemaVersion": "3.3.4",
  "updatedAt": "2021-07-23T09:50:07.251Z",
  "networkType": "ethereum",
  "devdoc": {
    "kind": "dev",
    "methods": {
      "approve(address,uint256)": {
        "details": "See {IERC721-approve}."
      },
      "balanceOf(address)": {
        "details": "See {IERC721-balanceOf}."
      },
      "getApproved(uint256)": {
        "details": "See {IERC721-getApproved}."
      },
      "isApprovedForAll(address,address)": {
        "details": "See {IERC721-isApprovedForAll}."
      },
      "name()": {
        "details": "See {IERC721Metadata-name}."
      },
      "owner()": {
        "details": "Returns the address of the current owner."
      },
      "ownerOf(uint256)": {
        "details": "See {IERC721-ownerOf}."
      },
      "renounceOwnership()": {
        "details": "Leaves the contract without owner. It will not be possible to call `onlyOwner` functions anymore. Can only be called by the current owner. NOTE: Renouncing ownership will leave the contract without an owner, thereby removing any functionality that is only available to the owner."
      },
      "royaltyInfo(uint256,uint256)": {
        "params": {
          "_tokenId": "- the NFT asset queried for royalty information",
          "_value": "- the sale price of the NFT asset specified by _tokenId"
        },
        "returns": {
          "_receiver": "- address of who should be sent the royalty payment",
          "_royaltyAmount": "- the royalty payment amount for value sale price"
        }
      },
      "safeTransferFrom(address,address,uint256)": {
        "details": "See {IERC721-safeTransferFrom}."
      },
      "safeTransferFrom(address,address,uint256,bytes)": {
        "details": "See {IERC721-safeTransferFrom}."
      },
      "setApprovalForAll(address,bool)": {
        "details": "See {IERC721-setApprovalForAll}."
      },
      "supportsInterface(bytes4)": {
        "details": "See {IERC165-supportsInterface}."
      },
      "symbol()": {
        "details": "See {IERC721Metadata-symbol}."
      },
      "tokenURI(uint256)": {
        "details": "See {IERC721Metadata-tokenURI}."
      },
      "transferFrom(address,address,uint256)": {
        "details": "See {IERC721-transferFrom}."
      },
      "transferOwnership(address)": {
        "details": "Transfers ownership of the contract to a new account (`newOwner`). Can only be called by the current owner."
      }
    },
    "version": 1
  },
  "userdoc": {
    "kind": "user",
    "methods": {
      "royaltyInfo(uint256,uint256)": {
        "notice": "Called with the sale price to determine how much royalty is owed and to whom."
      }
    },
    "version": 1
  }
}