{
  "contractName": "NFTToken",
  "abi": [
    {
      "inputs": [
        {
          "internalType": "string",
          "name": "_baseURI_",
          "type": "string"
        }
      ],
      "stateMutability": "nonpayable",
      "type": "constructor"
    },
    {
      "anonymous": false,
      "inputs": [
        {
          "indexed": true,
          "internalType": "address",
          "name": "owner",
          "type": "address"
        },
        {
          "indexed": true,
          "internalType": "address",
          "name": "approved",
          "type": "address"
        },
        {
          "indexed": true,
          "internalType": "uint256",
          "name": "tokenId",
          "type": "uint256"
        }
      ],
      "name": "Approval",
      "type": "event"
    },
    {
      "anonymous": false,
      "inputs": [
        {
          "indexed": true,
          "internalType": "address",
          "name": "owner",
          "type": "address"
        },
        {
          "indexed": true,
          "internalType": "address",
          "name": "operator",
          "type": "address"
        },
        {
          "indexed": false,
          "internalType": "bool",
          "name": "approved",
          "type": "bool"
        }
      ],
      "name": "ApprovalForAll",
      "type": "event"
    },
    {
      "anonymous": false,
      "inputs": [
        {
          "indexed": true,
          "internalType": "address",
          "name": "previousOwner",
          "type": "address"
        },
        {
          "indexed": true,
          "internalType": "address",
          "name": "newOwner",
          "type": "address"
        }
      ],
      "name": "OwnershipTransferred",
      "type": "event"
    },
    {
      "anonymous": false,
      "inputs": [
        {
          "indexed": true,
          "internalType": "address",
          "name": "from",
          "type": "address"
        },
        {
          "indexed": true,
          "internalType": "address",
          "name": "to",
          "type": "address"
        },
        {
          "indexed": true,
          "internalType": "uint256",
          "name": "tokenId",
          "type": "uint256"
        }
      ],
      "name": "Transfer",
      "type": "event"
    },
    {
      "inputs": [
        {
          "internalType": "address",
          "name": "to",
          "type": "address"
        },
        {
          "internalType": "uint256",
          "name": "tokenId",
          "type": "uint256"
        }
      ],
      "name": "approve",
      "outputs": [],
      "stateMutability": "nonpayable",
      "type": "function"
    },
    {
      "inputs": [
        {
          "internalType": "address",
          "name": "owner",
          "type": "address"
        }
      ],
      "name": "balanceOf",
      "outputs": [
        {
          "internalType": "uint256",
          "name": "",
          "type": "uint256"
        }
      ],
      "stateMutability": "view",
      "type": "function",
      "constant": true
    },
    {
      "inputs": [
        {
          "internalType": "uint256",
          "name": "tokenId",
          "type": "uint256"
        }
      ],
      "name": "getApproved",
      "outputs": [
        {
          "internalType": "address",
          "name": "",
          "type": "address"
        }
      ],
      "stateMutability": "view",
      "type": "function",
      "constant": true
    },
    {
      "inputs": [
        {
          "internalType": "address",
          "name": "owner",
          "type": "address"
        },
        {
          "internalType": "address",
          "name": "operator",
          "type": "address"
        }
      ],
      "name": "isApprovedForAll",
      "outputs": [
        {
          "internalType": "bool",
          "name": "",
          "type": "bool"
        }
      ],
      "stateMutability": "view",
      "type": "function",
      "constant": true
    },
    {
      "inputs": [],
      "name": "name",
      "outputs": [
        {
          "internalType": "string",
          "name": "",
          "type": "string"
        }
      ],
      "stateMutability": "view",
      "type": "function",
      "constant": true
    },
    {
      "inputs": [],
      "name": "owner",
      "outputs": [
        {
          "internalType": "address",
          "name": "",
          "type": "address"
        }
      ],
      "stateMutability": "view",
      "type": "function",
      "constant": true
    },
    {
      "inputs": [
        {
          "internalType": "uint256",
          "name": "tokenId",
          "type": "uint256"
        }
      ],
      "name": "ownerOf",
      "outputs": [
        {
          "internalType": "address",
          "name": "",
          "type": "address"
        }
      ],
      "stateMutability": "view",
      "type": "function",
      "constant": true
    },
    {
      "inputs": [],
      "name": "renounceOwnership",
      "outputs": [],
      "stateMutability": "nonpayable",
      "type": "function"
    },
    {
      "inputs": [
        {
          "internalType": "address",
          "name": "from",
          "type": "address"
        },
        {
          "internalType": "address",
          "name": "to",
          "type": "address"
        },
        {
          "internalType": "uint256",
          "name": "tokenId",
          "type": "uint256"
        }
      ],
      "name": "safeTransferFrom",
      "outputs": [],
      "stateMutability": "nonpayable",
      "type": "function"
    },
    {
      "inputs": [
        {
          "internalType": "address",
          "name": "from",
          "type": "address"
        },
        {
          "internalType": "address",
          "name": "to",
          "type": "address"
        },
        {
          "internalType": "uint256",
          "name": "tokenId",
          "type": "uint256"
        },
        {
          "internalType": "bytes",
          "name": "_data",
          "type": "bytes"
        }
      ],
      "name": "safeTransferFrom",
      "outputs": [],
      "stateMutability": "nonpayable",
      "type": "function"
    },
    {
      "inputs": [
        {
          "internalType": "address",
          "name": "operator",
          "type": "address"
        },
        {
          "internalType": "bool",
          "name": "approved",
          "type": "bool"
        }
      ],
      "name": "setApprovalForAll",
      "outputs": [],
      "stateMutability": "nonpayable",
      "type": "function"
    },
    {
      "inputs": [],
      "name": "symbol",
      "outputs": [
        {
          "internalType": "string",
          "name": "",
          "type": "string"
        }
      ],
      "stateMutability": "view",
      "type": "function",
      "constant": true
    },
    {
      "inputs": [
        {
          "internalType": "uint256",
          "name": "tokenId",
          "type": "uint256"
        }
      ],
      "name": "tokenURI",
      "outputs": [
        {
          "internalType": "string",
          "name": "",
          "type": "string"
        }
      ],
      "stateMutability": "view",
      "type": "function",
      "constant": true
    },
    {
      "inputs": [
        {
          "internalType": "address",
          "name": "from",
          "type": "address"
        },
        {
          "internalType": "address",
          "name": "to",
          "type": "address"
        },
        {
          "internalType": "uint256",
          "name": "tokenId",
          "type": "uint256"
        }
      ],
      "name": "transferFrom",
      "outputs": [],
      "stateMutability": "nonpayable",
      "type": "function"
    },
    {
      "inputs": [
        {
          "internalType": "address",
          "name": "newOwner",
          "type": "address"
        }
      ],
      "name": "transferOwnership",
      "outputs": [],
      "stateMutability": "nonpayable",
      "type": "function"
    },
    {
      "inputs": [
        {
          "internalType": "bytes4",
          "name": "interfaceId",
          "type": "bytes4"
        }
      ],
      "name": "supportsInterface",
      "outputs": [
        {
          "internalType": "bool",
          "name": "",
          "type": "bool"
        }
      ],
      "stateMutability": "view",
      "type": "function",
      "constant": true
    },
    {
      "inputs": [
        {
          "internalType": "uint256",
          "name": "_tokenId",
          "type": "uint256"
        },
        {
          "internalType": "uint256",
          "name": "_value",
          "type": "uint256"
        }
      ],
      "name": "royaltyInfo",
      "outputs": [
        {
          "internalType": "address",
          "name": "_receiver",
          "type": "address"
        },
        {
          "internalType": "uint256",
          "name": "_royaltyAmount",
          "type": "uint256"
        }
      ],
      "stateMutability": "view",
      "type": "function",
      "constant": true
    },
    {
      "inputs": [
        {
          "internalType": "uint256",
          "name": "tokenId",
          "type": "uint256"
        },
        {
          "internalType": "address",
          "name": "royaltyRecipient",
          "type": "address"
        },
        {
          "internalType": "uint256",
          "name": "royaltyPercentage",
          "type": "uint256"
        },
        {
          "internalType": "string",
          "name": "_uri",
          "type": "string"
        }
      ],
      "name": "mint",
      "outputs": [],
      "stateMutability": "nonpayable",
      "type": "function"
    },
    {
      "inputs": [
        {
          "internalType": "string",
          "name": "_baseUri",
          "type": "string"
        }
      ],
      "name": "setBaseURI",
      "outputs": [],
      "stateMutability": "nonpayable",
      "type": "function"
    }
  ],
  "bytecode": "0x60806040523480156200001157600080fd5b5060405162001e3e38038062001e3e83398101604081905262000034916200023b565b60408051808201825260088152672930b932a837b93760c11b60208083019182528351808501909452600384526204e46560ec1b9084015281519192916200007f9160009162000195565b5080516200009590600190602084019062000195565b5050506000620000aa6200010a60201b60201c565b600780546001600160a01b0319166001600160a01b038316908117909155604051919250906000907f8be0079c531659141344cd1fd0a4f28419497f9722a3daafe3b4186f6b6457e0908290a35062000103816200010e565b5062000364565b3390565b6007546001600160a01b031633146200016d5760405162461bcd60e51b815260206004820181905260248201527f4f776e61626c653a2063616c6c6572206973206e6f7420746865206f776e6572604482015260640160405180910390fd5b60008151116200017c57600080fd5b80516200019190600890602084019062000195565b5050565b828054620001a39062000311565b90600052602060002090601f016020900481019282620001c7576000855562000212565b82601f10620001e257805160ff191683800117855562000212565b8280016001018555821562000212579182015b8281111562000212578251825591602001919060010190620001f5565b506200022092915062000224565b5090565b5b8082111562000220576000815560010162000225565b600060208083850312156200024e578182fd5b82516001600160401b038082111562000265578384fd5b818501915085601f83011262000279578384fd5b8151818111156200028e576200028e6200034e565b604051601f8201601f19908116603f01168101908382118183101715620002b957620002b96200034e565b816040528281528886848701011115620002d1578687fd5b8693505b82841015620002f45784840186015181850187015292850192620002d5565b828411156200030557868684830101525b98975050505050505050565b600181811c908216806200032657607f821691505b602082108114156200034857634e487b7160e01b600052602260045260246000fd5b50919050565b634e487b7160e01b600052604160045260246000fd5b611aca80620003746000396000f3fe608060405234801561001057600080fd5b50600436106101215760003560e01c806370a08231116100ad578063af131f5011610071578063af131f5014610287578063b88d4fde1461029a578063c87b56dd146102ad578063e985e9c5146102c0578063f2fde38b146102fc57600080fd5b806370a0823114610232578063715018a6146102535780638da5cb5b1461025b57806395d89b411461026c578063a22cb4651461027457600080fd5b806323b872dd116100f457806323b872dd146101b45780632a55205a146101c757806342842e0e146101f957806355f804b31461020c5780636352211e1461021f57600080fd5b806301ffc9a71461012657806306fdde031461015f578063081812fc14610174578063095ea7b31461019f575b600080fd5b61014a6101343660046116c7565b6001600160e01b03191663152a902d60e11b1490565b60405190151581526020015b60405180910390f35b61016761030f565b6040516101569190611856565b610187610182366004611732565b6103a1565b6040516001600160a01b039091168152602001610156565b6101b26101ad36600461169e565b61042e565b005b6101b26101c23660046115b0565b610544565b6101da6101d536600461179d565b610575565b604080516001600160a01b039093168352602083019190915201610156565b6101b26102073660046115b0565b6105ce565b6101b261021a3660046116ff565b6105e9565b61018761022d366004611732565b610638565b610245610240366004611564565b6106b5565b604051908152602001610156565b6101b261073c565b6007546001600160a01b0316610187565b6101676107b0565b6101b2610282366004611664565b6107bf565b6101b261029536600461174a565b610884565b6101b26102a83660046115eb565b6108a9565b6101676102bb366004611732565b6108db565b61014a6102ce36600461157e565b6001600160a01b03918216600090815260056020908152604080832093909416825291909152205460ff1690565b6101b261030a366004611564565b610a45565b60606000805461031e906119cf565b80601f016020809104026020016040519081016040528092919081815260200182805461034a906119cf565b80156103975780601f1061036c57610100808354040283529160200191610397565b820191906000526020600020905b81548152906001019060200180831161037a57829003601f168201915b5050505050905090565b60006103ac82610b30565b6104125760405162461bcd60e51b815260206004820152602c60248201527f4552433732313a20617070726f76656420717565727920666f72206e6f6e657860448201526b34b9ba32b73a103a37b5b2b760a11b60648201526084015b60405180910390fd5b506000908152600460205260409020546001600160a01b031690565b600061043982610638565b9050806001600160a01b0316836001600160a01b031614156104a75760405162461bcd60e51b815260206004820152602160248201527f4552433732313a20617070726f76616c20746f2063757272656e74206f776e656044820152603960f91b6064820152608401610409565b336001600160a01b03821614806104c357506104c381336102ce565b6105355760405162461bcd60e51b815260206004820152603860248201527f4552433732313a20617070726f76652063616c6c6572206973206e6f74206f7760448201527f6e6572206e6f7220617070726f76656420666f7220616c6c00000000000000006064820152608401610409565b61053f8383610b4d565b505050565b61054e3382610bbb565b61056a5760405162461bcd60e51b8152600401610409906118f0565b61053f838383610ca1565b6000828152600960209081526040808320815180830190925280546001600160a01b03168083526001909101549282018390528392612710906105b8908761196d565b6105c29190611959565b92509250509250929050565b61053f838383604051806020016040528060008152506108a9565b6007546001600160a01b031633146106135760405162461bcd60e51b8152600401610409906118bb565b600081511161062157600080fd5b805161063490600890602084019061141a565b5050565b6000818152600260205260408120546001600160a01b0316806106af5760405162461bcd60e51b815260206004820152602960248201527f4552433732313a206f776e657220717565727920666f72206e6f6e657869737460448201526832b73a103a37b5b2b760b91b6064820152608401610409565b92915050565b60006001600160a01b0382166107205760405162461bcd60e51b815260206004820152602a60248201527f4552433732313a2062616c616e636520717565727920666f7220746865207a65604482015269726f206164647265737360b01b6064820152608401610409565b506001600160a01b031660009081526003602052604090205490565b6007546001600160a01b031633146107665760405162461bcd60e51b8152600401610409906118bb565b6007546040516000916001600160a01b0316907f8be0079c531659141344cd1fd0a4f28419497f9722a3daafe3b4186f6b6457e0908390a3600780546001600160a01b0319169055565b60606001805461031e906119cf565b6001600160a01b0382163314156108185760405162461bcd60e51b815260206004820152601960248201527f4552433732313a20617070726f766520746f2063616c6c6572000000000000006044820152606401610409565b3360008181526005602090815260408083206001600160a01b03871680855290835292819020805460ff191686151590811790915590519081529192917f17307eab39ab6107e8899845ad3d59bd9653f200f220920489ca2b5937696c31910160405180910390a35050565b61088e3385610e41565b6108988482610e5b565b6108a3848484610ee6565b50505050565b6108b33383610bbb565b6108cf5760405162461bcd60e51b8152600401610409906118f0565b6108a384848484610f80565b60606108e682610b30565b61094c5760405162461bcd60e51b815260206004820152603160248201527f45524337323155524953746f726167653a2055524920717565727920666f72206044820152703737b732bc34b9ba32b73a103a37b5b2b760791b6064820152608401610409565b60008281526006602052604081208054610965906119cf565b80601f0160208091040260200160405190810160405280929190818152602001828054610991906119cf565b80156109de5780601f106109b3576101008083540402835291602001916109de565b820191906000526020600020905b8154815290600101906020018083116109c157829003601f168201915b5050505050905060006109ef610fb3565b9050805160001415610a02575092915050565b815115610a34578082604051602001610a1c9291906117ea565b60405160208183030381529060405292505050919050565b610a3d84610fc2565b949350505050565b6007546001600160a01b03163314610a6f5760405162461bcd60e51b8152600401610409906118bb565b6001600160a01b038116610ad45760405162461bcd60e51b815260206004820152602660248201527f4f776e61626c653a206e6577206f776e657220697320746865207a65726f206160448201526564647265737360d01b6064820152608401610409565b6007546040516001600160a01b038084169216907f8be0079c531659141344cd1fd0a4f28419497f9722a3daafe3b4186f6b6457e090600090a3600780546001600160a01b0319166001600160a01b0392909216919091179055565b6000908152600260205260409020546001600160a01b0316151590565b600081815260046020526040902080546001600160a01b0319166001600160a01b0384169081179091558190610b8282610638565b6001600160a01b03167f8c5be1e5ebec7d5bd14f71427d1e84f3dd0314c0f7b2291e5b200ac8c7c3b92560405160405180910390a45050565b6000610bc682610b30565b610c275760405162461bcd60e51b815260206004820152602c60248201527f4552433732313a206f70657261746f7220717565727920666f72206e6f6e657860448201526b34b9ba32b73a103a37b5b2b760a11b6064820152608401610409565b6000610c3283610638565b9050806001600160a01b0316846001600160a01b03161480610c6d5750836001600160a01b0316610c62846103a1565b6001600160a01b0316145b80610a3d57506001600160a01b0380821660009081526005602090815260408083209388168352929052205460ff16610a3d565b826001600160a01b0316610cb482610638565b6001600160a01b031614610d1c5760405162461bcd60e51b815260206004820152602960248201527f4552433732313a207472616e73666572206f6620746f6b656e2074686174206960448201526839903737ba1037bbb760b91b6064820152608401610409565b6001600160a01b038216610d7e5760405162461bcd60e51b8152602060048201526024808201527f4552433732313a207472616e7366657220746f20746865207a65726f206164646044820152637265737360e01b6064820152608401610409565b610d89600082610b4d565b6001600160a01b0383166000908152600360205260408120805460019290610db290849061198c565b90915550506001600160a01b0382166000908152600360205260408120805460019290610de0908490611941565b909155505060008181526002602052604080822080546001600160a01b0319166001600160a01b0386811691821790925591518493918716917fddf252ad1be2c89b69c2b068fc378daa952ba7f163c4a11628f55a4df523b3ef91a4505050565b61063482826040518060200160405280600081525061108d565b610e6482610b30565b610ec75760405162461bcd60e51b815260206004820152602e60248201527f45524337323155524953746f726167653a2055524920736574206f66206e6f6e60448201526d32bc34b9ba32b73a103a37b5b2b760911b6064820152608401610409565b6000828152600660209081526040909120825161053f9284019061141a565b612710811115610f385760405162461bcd60e51b815260206004820152601a60248201527f45524332393831526f79616c746965733a20546f6f20686967680000000000006044820152606401610409565b6040805180820182526001600160a01b03938416815260208082019384526000958652600990529320925183546001600160a01b031916921691909117825551600190910155565b610f8b848484610ca1565b610f97848484846110c0565b6108a35760405162461bcd60e51b815260040161040990611869565b60606008805461031e906119cf565b6060610fcd82610b30565b6110315760405162461bcd60e51b815260206004820152602f60248201527f4552433732314d657461646174613a2055524920717565727920666f72206e6f60448201526e3732bc34b9ba32b73a103a37b5b2b760891b6064820152608401610409565b600061103b610fb3565b9050600081511161105b5760405180602001604052806000815250611086565b80611065846111cd565b6040516020016110769291906117ea565b6040516020818303038152906040525b9392505050565b61109783836112e7565b6110a460008484846110c0565b61053f5760405162461bcd60e51b815260040161040990611869565b60006001600160a01b0384163b156111c257604051630a85bd0160e11b81526001600160a01b0385169063150b7a0290611104903390899088908890600401611819565b602060405180830381600087803b15801561111e57600080fd5b505af192505050801561114e575060408051601f3d908101601f1916820190925261114b918101906116e3565b60015b6111a8573d80801561117c576040519150601f19603f3d011682016040523d82523d6000602084013e611181565b606091505b5080516111a05760405162461bcd60e51b815260040161040990611869565b805181602001fd5b6001600160e01b031916630a85bd0160e11b149050610a3d565b506001949350505050565b6060816111f15750506040805180820190915260018152600360fc1b602082015290565b8160005b811561121b578061120581611a0a565b91506112149050600a83611959565b91506111f5565b60008167ffffffffffffffff81111561124457634e487b7160e01b600052604160045260246000fd5b6040519080825280601f01601f19166020018201604052801561126e576020820181803683370190505b5090505b8415610a3d5761128360018361198c565b9150611290600a86611a25565b61129b906030611941565b60f81b8183815181106112be57634e487b7160e01b600052603260045260246000fd5b60200101906001600160f81b031916908160001a9053506112e0600a86611959565b9450611272565b6001600160a01b03821661133d5760405162461bcd60e51b815260206004820181905260248201527f4552433732313a206d696e7420746f20746865207a65726f20616464726573736044820152606401610409565b61134681610b30565b156113935760405162461bcd60e51b815260206004820152601c60248201527f4552433732313a20746f6b656e20616c7265616479206d696e746564000000006044820152606401610409565b6001600160a01b03821660009081526003602052604081208054600192906113bc908490611941565b909155505060008181526002602052604080822080546001600160a01b0319166001600160a01b03861690811790915590518392907fddf252ad1be2c89b69c2b068fc378daa952ba7f163c4a11628f55a4df523b3ef908290a45050565b828054611426906119cf565b90600052602060002090601f016020900481019282611448576000855561148e565b82601f1061146157805160ff191683800117855561148e565b8280016001018555821561148e579182015b8281111561148e578251825591602001919060010190611473565b5061149a92915061149e565b5090565b5b8082111561149a576000815560010161149f565b600067ffffffffffffffff808411156114ce576114ce611a65565b604051601f8501601f19908116603f011681019082821181831017156114f6576114f6611a65565b8160405280935085815286868601111561150f57600080fd5b858560208301376000602087830101525050509392505050565b80356001600160a01b038116811461154057600080fd5b919050565b600082601f830112611555578081fd5b611086838335602085016114b3565b600060208284031215611575578081fd5b61108682611529565b60008060408385031215611590578081fd5b61159983611529565b91506115a760208401611529565b90509250929050565b6000806000606084860312156115c4578081fd5b6115cd84611529565b92506115db60208501611529565b9150604084013590509250925092565b60008060008060808587031215611600578081fd5b61160985611529565b935061161760208601611529565b925060408501359150606085013567ffffffffffffffff811115611639578182fd5b8501601f81018713611649578182fd5b611658878235602084016114b3565b91505092959194509250565b60008060408385031215611676578182fd5b61167f83611529565b915060208301358015158114611693578182fd5b809150509250929050565b600080604083850312156116b0578182fd5b6116b983611529565b946020939093013593505050565b6000602082840312156116d8578081fd5b813561108681611a7b565b6000602082840312156116f4578081fd5b815161108681611a7b565b600060208284031215611710578081fd5b813567ffffffffffffffff811115611726578182fd5b610a3d84828501611545565b600060208284031215611743578081fd5b5035919050565b6000806000806080858703121561175f578384fd5b8435935061176f60208601611529565b925060408501359150606085013567ffffffffffffffff811115611791578182fd5b61165887828801611545565b600080604083850312156117af578182fd5b50508035926020909101359150565b600081518084526117d68160208601602086016119a3565b601f01601f19169290920160200192915050565b600083516117fc8184602088016119a3565b8351908301906118108183602088016119a3565b01949350505050565b6001600160a01b038581168252841660208201526040810183905260806060820181905260009061184c908301846117be565b9695505050505050565b60208152600061108660208301846117be565b60208082526032908201527f4552433732313a207472616e7366657220746f206e6f6e20455243373231526560408201527131b2b4bb32b91034b6b83632b6b2b73a32b960711b606082015260800190565b6020808252818101527f4f776e61626c653a2063616c6c6572206973206e6f7420746865206f776e6572604082015260600190565b60208082526031908201527f4552433732313a207472616e736665722063616c6c6572206973206e6f74206f6040820152701ddb995c881b9bdc88185c1c1c9bdd9959607a1b606082015260800190565b6000821982111561195457611954611a39565b500190565b60008261196857611968611a4f565b500490565b600081600019048311821515161561198757611987611a39565b500290565b60008282101561199e5761199e611a39565b500390565b60005b838110156119be5781810151838201526020016119a6565b838111156108a35750506000910152565b600181811c908216806119e357607f821691505b60208210811415611a0457634e487b7160e01b600052602260045260246000fd5b50919050565b6000600019821415611a1e57611a1e611a39565b5060010190565b600082611a3457611a34611a4f565b500690565b634e487b7160e01b600052601160045260246000fd5b634e487b7160e01b600052601260045260246000fd5b634e487b7160e01b600052604160045260246000fd5b6001600160e01b031981168114611a9157600080fd5b5056fea2646970667358221220e4e8645ff7b3ff3b82cf8e7a92b828cf6a22eadda004004afa2ad6758893636564736f6c63430008040033",
  "immutableReferences": {},
  "source": "// contracts/GLDToken.sol\n// SPDX-License-Identifier: MIT\npragma solidity ^0.8.0;\n\nimport \"@openzeppelin/contracts/token/ERC721/ERC721.sol\";\nimport \"@openzeppelin/contracts/token/ERC721/extensions/ERC721URIStorage.sol\";\nimport \"@openzeppelin/contracts/access/Ownable.sol\";\n\ninterface IERC2981Royalties {\n    /// @notice Called with the sale price to determine how much royalty\n    //          is owed and to whom.\n    /// @param _tokenId - the NFT asset queried for royalty information\n    /// @param _value - the sale price of the NFT asset specified by _tokenId\n    /// @return _receiver - address of who should be sent the royalty payment\n    /// @return _royaltyAmount - the royalty payment amount for value sale price\n    function royaltyInfo(uint256 _tokenId, uint256 _value)\n        external\n        view\n        returns (address _receiver, uint256 _royaltyAmount);\n}\n\ncontract NFTToken is ERC721URIStorage, Ownable, IERC2981Royalties {\n    struct Royalty {\n        address recipient;\n        uint256 value;\n    }\n    string internal baseUri;\n    mapping(uint256 => Royalty) internal _royalties;\n\n    constructor(string memory _baseURI_) ERC721(\"RarePorn\", \"NFP\") {\n        setBaseURI(_baseURI_);\n    }\n\n    function supportsInterface(bytes4 interfaceId)\n        public\n        view\n        virtual\n        override\n        returns (bool)\n    {\n        return interfaceId == type(IERC2981Royalties).interfaceId;\n    }\n\n    /// @dev Sets token royalties\n    /// @param id the token id fir which we register the royalties\n    /// @param recipient recipient of the royalties\n    /// @param value percentage (using 2 decimals - 10000 = 100, 0 = 0)\n    function _setTokenRoyalty(\n        uint id,\n        address recipient,\n        uint256 value\n    ) internal {\n        require(value <= 10000, 'ERC2981Royalties: Too high');\n\n        _royalties[id] = Royalty(recipient, value);\n    }\n\n    /// @notice Called with the sale price to determine how much royalty is owed and to whom.\n    /// @param _tokenId - the NFT asset queried for royalty information\n    /// @param _value - the sale price of the NFT asset specified by _tokenId\n    /// @return _receiver - address of who should be sent the royalty payment\n    /// @return _royaltyAmount - the royalty payment amount for value sale price\n    function royaltyInfo(uint256 _tokenId, uint256 _value)\n        external\n        override\n        view\n        returns (address _receiver, uint256 _royaltyAmount)\n    {\n        Royalty memory royalty = _royalties[_tokenId];\n        return (royalty.recipient, (_value * royalty.value) / 10000);\n    }\n\n    function mint(uint tokenId, address royaltyRecipient, uint royaltyPercentage, string memory _uri) public {\n        _safeMint(msg.sender, tokenId);\n        _setTokenURI(tokenId, _uri);\n        _setTokenRoyalty(tokenId, royaltyRecipient, royaltyPercentage);\n    } \n\n    /**\n     * @dev Base URI for computing {tokenURI}. Empty by default, can be overriden\n     * in child contracts.\n     */\n    function _baseURI() internal view virtual override returns (string memory) {\n        return baseUri;\n    }\n\n    function setBaseURI(string memory _baseUri) public onlyOwner {\n        require(bytes(_baseUri).length > 0);\n        baseUri = _baseUri;\n    }\n}",
  "sourcePath": "/Users/yannick/Desktop/rarepornio/src/contracts/NFTToken.sol",
  "compiler": {
    "name": "solc",
    "version": "0.8.4+commit.c7e474f2.Emscripten.clang"
  },
  "schemaVersion": "3.3.4",
  "updatedAt": "2021-07-01T11:04:59.976Z",
  "networkType": "ethereum",
  "devdoc": {
    "kind": "dev",
    "methods": {
      "approve(address,uint256)": {
        "details": "See {IERC721-approve}."
      },
      "balanceOf(address)": {
        "details": "See {IERC721-balanceOf}."
      },
      "getApproved(uint256)": {
        "details": "See {IERC721-getApproved}."
      },
      "isApprovedForAll(address,address)": {
        "details": "See {IERC721-isApprovedForAll}."
      },
      "name()": {
        "details": "See {IERC721Metadata-name}."
      },
      "owner()": {
        "details": "Returns the address of the current owner."
      },
      "ownerOf(uint256)": {
        "details": "See {IERC721-ownerOf}."
      },
      "renounceOwnership()": {
        "details": "Leaves the contract without owner. It will not be possible to call `onlyOwner` functions anymore. Can only be called by the current owner. NOTE: Renouncing ownership will leave the contract without an owner, thereby removing any functionality that is only available to the owner."
      },
      "royaltyInfo(uint256,uint256)": {
        "params": {
          "_tokenId": "- the NFT asset queried for royalty information",
          "_value": "- the sale price of the NFT asset specified by _tokenId"
        },
        "returns": {
          "_receiver": "- address of who should be sent the royalty payment",
          "_royaltyAmount": "- the royalty payment amount for value sale price"
        }
      },
      "safeTransferFrom(address,address,uint256)": {
        "details": "See {IERC721-safeTransferFrom}."
      },
      "safeTransferFrom(address,address,uint256,bytes)": {
        "details": "See {IERC721-safeTransferFrom}."
      },
      "setApprovalForAll(address,bool)": {
        "details": "See {IERC721-setApprovalForAll}."
      },
      "supportsInterface(bytes4)": {
        "details": "See {IERC165-supportsInterface}."
      },
      "symbol()": {
        "details": "See {IERC721Metadata-symbol}."
      },
      "tokenURI(uint256)": {
        "details": "See {IERC721Metadata-tokenURI}."
      },
      "transferFrom(address,address,uint256)": {
        "details": "See {IERC721-transferFrom}."
      },
      "transferOwnership(address)": {
        "details": "Transfers ownership of the contract to a new account (`newOwner`). Can only be called by the current owner."
      }
    },
    "version": 1
  },
  "userdoc": {
    "kind": "user",
    "methods": {
      "royaltyInfo(uint256,uint256)": {
        "notice": "Called with the sale price to determine how much royalty is owed and to whom."
      }
    },
    "version": 1
  }
}