{
  "contractName": "NFTToken",
  "abi": [
    {
      "inputs": [
        {
          "internalType": "string",
          "name": "_baseURI_",
          "type": "string"
        }
      ],
      "stateMutability": "nonpayable",
      "type": "constructor"
    },
    {
      "anonymous": false,
      "inputs": [
        {
          "indexed": true,
          "internalType": "address",
          "name": "owner",
          "type": "address"
        },
        {
          "indexed": true,
          "internalType": "address",
          "name": "approved",
          "type": "address"
        },
        {
          "indexed": true,
          "internalType": "uint256",
          "name": "tokenId",
          "type": "uint256"
        }
      ],
      "name": "Approval",
      "type": "event"
    },
    {
      "anonymous": false,
      "inputs": [
        {
          "indexed": true,
          "internalType": "address",
          "name": "owner",
          "type": "address"
        },
        {
          "indexed": true,
          "internalType": "address",
          "name": "operator",
          "type": "address"
        },
        {
          "indexed": false,
          "internalType": "bool",
          "name": "approved",
          "type": "bool"
        }
      ],
      "name": "ApprovalForAll",
      "type": "event"
    },
    {
      "anonymous": false,
      "inputs": [
        {
          "indexed": true,
          "internalType": "address",
          "name": "previousOwner",
          "type": "address"
        },
        {
          "indexed": true,
          "internalType": "address",
          "name": "newOwner",
          "type": "address"
        }
      ],
      "name": "OwnershipTransferred",
      "type": "event"
    },
    {
      "anonymous": false,
      "inputs": [
        {
          "indexed": true,
          "internalType": "address",
          "name": "from",
          "type": "address"
        },
        {
          "indexed": true,
          "internalType": "address",
          "name": "to",
          "type": "address"
        },
        {
          "indexed": true,
          "internalType": "uint256",
          "name": "tokenId",
          "type": "uint256"
        }
      ],
      "name": "Transfer",
      "type": "event"
    },
    {
      "inputs": [
        {
          "internalType": "address",
          "name": "to",
          "type": "address"
        },
        {
          "internalType": "uint256",
          "name": "tokenId",
          "type": "uint256"
        }
      ],
      "name": "approve",
      "outputs": [],
      "stateMutability": "nonpayable",
      "type": "function"
    },
    {
      "inputs": [
        {
          "internalType": "address",
          "name": "owner",
          "type": "address"
        }
      ],
      "name": "balanceOf",
      "outputs": [
        {
          "internalType": "uint256",
          "name": "",
          "type": "uint256"
        }
      ],
      "stateMutability": "view",
      "type": "function"
    },
    {
      "inputs": [
        {
          "internalType": "uint256",
          "name": "tokenId",
          "type": "uint256"
        }
      ],
      "name": "getApproved",
      "outputs": [
        {
          "internalType": "address",
          "name": "",
          "type": "address"
        }
      ],
      "stateMutability": "view",
      "type": "function"
    },
    {
      "inputs": [
        {
          "internalType": "address",
          "name": "owner",
          "type": "address"
        },
        {
          "internalType": "address",
          "name": "operator",
          "type": "address"
        }
      ],
      "name": "isApprovedForAll",
      "outputs": [
        {
          "internalType": "bool",
          "name": "",
          "type": "bool"
        }
      ],
      "stateMutability": "view",
      "type": "function"
    },
    {
      "inputs": [],
      "name": "name",
      "outputs": [
        {
          "internalType": "string",
          "name": "",
          "type": "string"
        }
      ],
      "stateMutability": "view",
      "type": "function"
    },
    {
      "inputs": [],
      "name": "owner",
      "outputs": [
        {
          "internalType": "address",
          "name": "",
          "type": "address"
        }
      ],
      "stateMutability": "view",
      "type": "function"
    },
    {
      "inputs": [
        {
          "internalType": "uint256",
          "name": "tokenId",
          "type": "uint256"
        }
      ],
      "name": "ownerOf",
      "outputs": [
        {
          "internalType": "address",
          "name": "",
          "type": "address"
        }
      ],
      "stateMutability": "view",
      "type": "function"
    },
    {
      "inputs": [],
      "name": "renounceOwnership",
      "outputs": [],
      "stateMutability": "nonpayable",
      "type": "function"
    },
    {
      "inputs": [
        {
          "internalType": "address",
          "name": "from",
          "type": "address"
        },
        {
          "internalType": "address",
          "name": "to",
          "type": "address"
        },
        {
          "internalType": "uint256",
          "name": "tokenId",
          "type": "uint256"
        }
      ],
      "name": "safeTransferFrom",
      "outputs": [],
      "stateMutability": "nonpayable",
      "type": "function"
    },
    {
      "inputs": [
        {
          "internalType": "address",
          "name": "from",
          "type": "address"
        },
        {
          "internalType": "address",
          "name": "to",
          "type": "address"
        },
        {
          "internalType": "uint256",
          "name": "tokenId",
          "type": "uint256"
        },
        {
          "internalType": "bytes",
          "name": "_data",
          "type": "bytes"
        }
      ],
      "name": "safeTransferFrom",
      "outputs": [],
      "stateMutability": "nonpayable",
      "type": "function"
    },
    {
      "inputs": [
        {
          "internalType": "address",
          "name": "operator",
          "type": "address"
        },
        {
          "internalType": "bool",
          "name": "approved",
          "type": "bool"
        }
      ],
      "name": "setApprovalForAll",
      "outputs": [],
      "stateMutability": "nonpayable",
      "type": "function"
    },
    {
      "inputs": [],
      "name": "symbol",
      "outputs": [
        {
          "internalType": "string",
          "name": "",
          "type": "string"
        }
      ],
      "stateMutability": "view",
      "type": "function"
    },
    {
      "inputs": [
        {
          "internalType": "uint256",
          "name": "index",
          "type": "uint256"
        }
      ],
      "name": "tokenByIndex",
      "outputs": [
        {
          "internalType": "uint256",
          "name": "",
          "type": "uint256"
        }
      ],
      "stateMutability": "view",
      "type": "function"
    },
    {
      "inputs": [
        {
          "internalType": "address",
          "name": "owner",
          "type": "address"
        },
        {
          "internalType": "uint256",
          "name": "index",
          "type": "uint256"
        }
      ],
      "name": "tokenOfOwnerByIndex",
      "outputs": [
        {
          "internalType": "uint256",
          "name": "",
          "type": "uint256"
        }
      ],
      "stateMutability": "view",
      "type": "function"
    },
    {
      "inputs": [],
      "name": "totalSupply",
      "outputs": [
        {
          "internalType": "uint256",
          "name": "",
          "type": "uint256"
        }
      ],
      "stateMutability": "view",
      "type": "function"
    },
    {
      "inputs": [
        {
          "internalType": "address",
          "name": "from",
          "type": "address"
        },
        {
          "internalType": "address",
          "name": "to",
          "type": "address"
        },
        {
          "internalType": "uint256",
          "name": "tokenId",
          "type": "uint256"
        }
      ],
      "name": "transferFrom",
      "outputs": [],
      "stateMutability": "nonpayable",
      "type": "function"
    },
    {
      "inputs": [
        {
          "internalType": "address",
          "name": "newOwner",
          "type": "address"
        }
      ],
      "name": "transferOwnership",
      "outputs": [],
      "stateMutability": "nonpayable",
      "type": "function"
    },
    {
      "inputs": [
        {
          "internalType": "uint256",
          "name": "tokenId",
          "type": "uint256"
        }
      ],
      "name": "tokenURI",
      "outputs": [
        {
          "internalType": "string",
          "name": "",
          "type": "string"
        }
      ],
      "stateMutability": "view",
      "type": "function"
    },
    {
      "inputs": [
        {
          "internalType": "bytes4",
          "name": "interfaceId",
          "type": "bytes4"
        }
      ],
      "name": "supportsInterface",
      "outputs": [
        {
          "internalType": "bool",
          "name": "",
          "type": "bool"
        }
      ],
      "stateMutability": "view",
      "type": "function"
    },
    {
      "inputs": [
        {
          "internalType": "uint256",
          "name": "_tokenId",
          "type": "uint256"
        },
        {
          "internalType": "uint256",
          "name": "_value",
          "type": "uint256"
        }
      ],
      "name": "royaltyInfo",
      "outputs": [
        {
          "internalType": "address",
          "name": "_receiver",
          "type": "address"
        },
        {
          "internalType": "uint256",
          "name": "_royaltyAmount",
          "type": "uint256"
        }
      ],
      "stateMutability": "view",
      "type": "function"
    },
    {
      "inputs": [
        {
          "internalType": "uint256",
          "name": "tokenId",
          "type": "uint256"
        },
        {
          "internalType": "address",
          "name": "royaltyRecipient",
          "type": "address"
        },
        {
          "internalType": "uint256",
          "name": "royaltyPercentage",
          "type": "uint256"
        },
        {
          "internalType": "string",
          "name": "_uri",
          "type": "string"
        }
      ],
      "name": "mint",
      "outputs": [],
      "stateMutability": "nonpayable",
      "type": "function"
    },
    {
      "inputs": [
        {
          "internalType": "string",
          "name": "_baseUri",
          "type": "string"
        }
      ],
      "name": "setBaseURI",
      "outputs": [],
      "stateMutability": "nonpayable",
      "type": "function"
    }
  ],
  "bytecode": "0x60806040523480156200001157600080fd5b50604051620022e4380380620022e483398101604081905262000034916200023b565b60408051808201825260088152672930b932a837b93760c11b60208083019182528351808501909452600384526204e46560ec1b9084015281519192916200007f9160009162000195565b5080516200009590600190602084019062000195565b5050506000620000aa6200010a60201b60201c565b600b80546001600160a01b0319166001600160a01b038316908117909155604051919250906000907f8be0079c531659141344cd1fd0a4f28419497f9722a3daafe3b4186f6b6457e0908290a35062000103816200010e565b5062000364565b3390565b600b546001600160a01b031633146200016d5760405162461bcd60e51b815260206004820181905260248201527f4f776e61626c653a2063616c6c6572206973206e6f7420746865206f776e6572604482015260640160405180910390fd5b60008151116200017c57600080fd5b80516200019190600c90602084019062000195565b5050565b828054620001a39062000311565b90600052602060002090601f016020900481019282620001c7576000855562000212565b82601f10620001e257805160ff191683800117855562000212565b8280016001018555821562000212579182015b8281111562000212578251825591602001919060010190620001f5565b506200022092915062000224565b5090565b5b8082111562000220576000815560010162000225565b600060208083850312156200024e578182fd5b82516001600160401b038082111562000265578384fd5b818501915085601f83011262000279578384fd5b8151818111156200028e576200028e6200034e565b604051601f8201601f19908116603f01168101908382118183101715620002b957620002b96200034e565b816040528281528886848701011115620002d1578687fd5b8693505b82841015620002f45784840186015181850187015292850192620002d5565b828411156200030557868684830101525b98975050505050505050565b600181811c908216806200032657607f821691505b602082108114156200034857634e487b7160e01b600052602260045260246000fd5b50919050565b634e487b7160e01b600052604160045260246000fd5b611f7080620003746000396000f3fe608060405234801561001057600080fd5b50600436106101425760003560e01c80636352211e116100b8578063a22cb4651161007c578063a22cb465146102ae578063af131f50146102c1578063b88d4fde146102d4578063c87b56dd146102e7578063e985e9c5146102fa578063f2fde38b1461033657600080fd5b80636352211e1461026757806370a082311461027a578063715018a61461028d5780638da5cb5b1461029557806395d89b41146102a657600080fd5b806323b872dd1161010a57806323b872dd146101d65780632a55205a146101e95780632f745c591461021b57806342842e0e1461022e5780634f6ccce71461024157806355f804b31461025457600080fd5b806301ffc9a71461014757806306fdde031461016f578063081812fc14610184578063095ea7b3146101af57806318160ddd146101c4575b600080fd5b61015a610155366004611b6d565b610349565b60405190151581526020015b60405180910390f35b610177610374565b6040516101669190611cfc565b610197610192366004611bd8565b610406565b6040516001600160a01b039091168152602001610166565b6101c26101bd366004611b44565b610493565b005b6008545b604051908152602001610166565b6101c26101e4366004611a56565b6105a9565b6101fc6101f7366004611c43565b6105da565b604080516001600160a01b039093168352602083019190915201610166565b6101c8610229366004611b44565b610633565b6101c261023c366004611a56565b6106c9565b6101c861024f366004611bd8565b6106e4565b6101c2610262366004611ba5565b610785565b610197610275366004611bd8565b6107d4565b6101c8610288366004611a0a565b61084b565b6101c26108d2565b600b546001600160a01b0316610197565b610177610946565b6101c26102bc366004611b0a565b610955565b6101c26102cf366004611bf0565b610a1a565b6101c26102e2366004611a91565b610a3f565b6101776102f5366004611bd8565b610a71565b61015a610308366004611a24565b6001600160a01b03918216600090815260056020908152604080832093909416825291909152205460ff1690565b6101c2610344366004611a0a565b610a7c565b60006001600160e01b0319821663152a902d60e11b148061036e575061036e82610b67565b92915050565b60606000805461038390611e75565b80601f01602080910402602001604051908101604052809291908181526020018280546103af90611e75565b80156103fc5780601f106103d1576101008083540402835291602001916103fc565b820191906000526020600020905b8154815290600101906020018083116103df57829003601f168201915b5050505050905090565b600061041182610b8c565b6104775760405162461bcd60e51b815260206004820152602c60248201527f4552433732313a20617070726f76656420717565727920666f72206e6f6e657860448201526b34b9ba32b73a103a37b5b2b760a11b60648201526084015b60405180910390fd5b506000908152600460205260409020546001600160a01b031690565b600061049e826107d4565b9050806001600160a01b0316836001600160a01b0316141561050c5760405162461bcd60e51b815260206004820152602160248201527f4552433732313a20617070726f76616c20746f2063757272656e74206f776e656044820152603960f91b606482015260840161046e565b336001600160a01b038216148061052857506105288133610308565b61059a5760405162461bcd60e51b815260206004820152603860248201527f4552433732313a20617070726f76652063616c6c6572206973206e6f74206f7760448201527f6e6572206e6f7220617070726f76656420666f7220616c6c0000000000000000606482015260840161046e565b6105a48383610ba9565b505050565b6105b33382610c17565b6105cf5760405162461bcd60e51b815260040161046e90611d96565b6105a4838383610d01565b6000828152600d60209081526040808320815180830190925280546001600160a01b031680835260019091015492820183905283926127109061061d9087611e13565b6106279190611dff565b92509250509250929050565b600061063e8361084b565b82106106a05760405162461bcd60e51b815260206004820152602b60248201527f455243373231456e756d657261626c653a206f776e657220696e646578206f7560448201526a74206f6620626f756e647360a81b606482015260840161046e565b506001600160a01b03919091166000908152600660209081526040808320938352929052205490565b6105a483838360405180602001604052806000815250610a3f565b60006106ef60085490565b82106107525760405162461bcd60e51b815260206004820152602c60248201527f455243373231456e756d657261626c653a20676c6f62616c20696e646578206f60448201526b7574206f6620626f756e647360a01b606482015260840161046e565b6008828154811061077357634e487b7160e01b600052603260045260246000fd5b90600052602060002001549050919050565b600b546001600160a01b031633146107af5760405162461bcd60e51b815260040161046e90611d61565b60008151116107bd57600080fd5b80516107d090600c9060208401906118c0565b5050565b6000818152600260205260408120546001600160a01b03168061036e5760405162461bcd60e51b815260206004820152602960248201527f4552433732313a206f776e657220717565727920666f72206e6f6e657869737460448201526832b73a103a37b5b2b760b91b606482015260840161046e565b60006001600160a01b0382166108b65760405162461bcd60e51b815260206004820152602a60248201527f4552433732313a2062616c616e636520717565727920666f7220746865207a65604482015269726f206164647265737360b01b606482015260840161046e565b506001600160a01b031660009081526003602052604090205490565b600b546001600160a01b031633146108fc5760405162461bcd60e51b815260040161046e90611d61565b600b546040516000916001600160a01b0316907f8be0079c531659141344cd1fd0a4f28419497f9722a3daafe3b4186f6b6457e0908390a3600b80546001600160a01b0319169055565b60606001805461038390611e75565b6001600160a01b0382163314156109ae5760405162461bcd60e51b815260206004820152601960248201527f4552433732313a20617070726f766520746f2063616c6c657200000000000000604482015260640161046e565b3360008181526005602090815260408083206001600160a01b03871680855290835292819020805460ff191686151590811790915590519081529192917f17307eab39ab6107e8899845ad3d59bd9653f200f220920489ca2b5937696c31910160405180910390a35050565b610a243385610eac565b610a2e8482610ec6565b610a39848484610f51565b50505050565b610a493383610c17565b610a655760405162461bcd60e51b815260040161046e90611d96565b610a3984848484610feb565b606061036e8261101e565b600b546001600160a01b03163314610aa65760405162461bcd60e51b815260040161046e90611d61565b6001600160a01b038116610b0b5760405162461bcd60e51b815260206004820152602660248201527f4f776e61626c653a206e6577206f776e657220697320746865207a65726f206160448201526564647265737360d01b606482015260840161046e565b600b546040516001600160a01b038084169216907f8be0079c531659141344cd1fd0a4f28419497f9722a3daafe3b4186f6b6457e090600090a3600b80546001600160a01b0319166001600160a01b0392909216919091179055565b60006001600160e01b0319821663780e9d6360e01b148061036e575061036e82611180565b6000908152600260205260409020546001600160a01b0316151590565b600081815260046020526040902080546001600160a01b0319166001600160a01b0384169081179091558190610bde826107d4565b6001600160a01b03167f8c5be1e5ebec7d5bd14f71427d1e84f3dd0314c0f7b2291e5b200ac8c7c3b92560405160405180910390a45050565b6000610c2282610b8c565b610c835760405162461bcd60e51b815260206004820152602c60248201527f4552433732313a206f70657261746f7220717565727920666f72206e6f6e657860448201526b34b9ba32b73a103a37b5b2b760a11b606482015260840161046e565b6000610c8e836107d4565b9050806001600160a01b0316846001600160a01b03161480610cc95750836001600160a01b0316610cbe84610406565b6001600160a01b0316145b80610cf957506001600160a01b0380821660009081526005602090815260408083209388168352929052205460ff165b949350505050565b826001600160a01b0316610d14826107d4565b6001600160a01b031614610d7c5760405162461bcd60e51b815260206004820152602960248201527f4552433732313a207472616e73666572206f6620746f6b656e2074686174206960448201526839903737ba1037bbb760b91b606482015260840161046e565b6001600160a01b038216610dde5760405162461bcd60e51b8152602060048201526024808201527f4552433732313a207472616e7366657220746f20746865207a65726f206164646044820152637265737360e01b606482015260840161046e565b610de98383836111d0565b610df4600082610ba9565b6001600160a01b0383166000908152600360205260408120805460019290610e1d908490611e32565b90915550506001600160a01b0382166000908152600360205260408120805460019290610e4b908490611de7565b909155505060008181526002602052604080822080546001600160a01b0319166001600160a01b0386811691821790925591518493918716917fddf252ad1be2c89b69c2b068fc378daa952ba7f163c4a11628f55a4df523b3ef91a4505050565b6107d08282604051806020016040528060008152506111db565b610ecf82610b8c565b610f325760405162461bcd60e51b815260206004820152602e60248201527f45524337323155524953746f726167653a2055524920736574206f66206e6f6e60448201526d32bc34b9ba32b73a103a37b5b2b760911b606482015260840161046e565b6000828152600a6020908152604090912082516105a4928401906118c0565b612710811115610fa35760405162461bcd60e51b815260206004820152601a60248201527f45524332393831526f79616c746965733a20546f6f2068696768000000000000604482015260640161046e565b6040805180820182526001600160a01b03938416815260208082019384526000958652600d90529320925183546001600160a01b031916921691909117825551600190910155565b610ff6848484610d01565b6110028484848461120e565b610a395760405162461bcd60e51b815260040161046e90611d0f565b606061102982610b8c565b61108f5760405162461bcd60e51b815260206004820152603160248201527f45524337323155524953746f726167653a2055524920717565727920666f72206044820152703737b732bc34b9ba32b73a103a37b5b2b760791b606482015260840161046e565b6000828152600a6020526040812080546110a890611e75565b80601f01602080910402602001604051908101604052809291908181526020018280546110d490611e75565b80156111215780601f106110f657610100808354040283529160200191611121565b820191906000526020600020905b81548152906001019060200180831161110457829003601f168201915b50505050509050600061113261131b565b9050805160001415611145575092915050565b81511561117757808260405160200161115f929190611c90565b60405160208183030381529060405292505050919050565b610cf98461132a565b60006001600160e01b031982166380ac58cd60e01b14806111b157506001600160e01b03198216635b5e139f60e01b145b8061036e57506301ffc9a760e01b6001600160e01b031983161461036e565b6105a48383836113f5565b6111e583836114ad565b6111f2600084848461120e565b6105a45760405162461bcd60e51b815260040161046e90611d0f565b60006001600160a01b0384163b1561131057604051630a85bd0160e11b81526001600160a01b0385169063150b7a0290611252903390899088908890600401611cbf565b602060405180830381600087803b15801561126c57600080fd5b505af192505050801561129c575060408051601f3d908101601f1916820190925261129991810190611b89565b60015b6112f6573d8080156112ca576040519150601f19603f3d011682016040523d82523d6000602084013e6112cf565b606091505b5080516112ee5760405162461bcd60e51b815260040161046e90611d0f565b805181602001fd5b6001600160e01b031916630a85bd0160e11b149050610cf9565b506001949350505050565b6060600c805461038390611e75565b606061133582610b8c565b6113995760405162461bcd60e51b815260206004820152602f60248201527f4552433732314d657461646174613a2055524920717565727920666f72206e6f60448201526e3732bc34b9ba32b73a103a37b5b2b760891b606482015260840161046e565b60006113a361131b565b905060008151116113c357604051806020016040528060008152506113ee565b806113cd846115ec565b6040516020016113de929190611c90565b6040516020818303038152906040525b9392505050565b6001600160a01b0383166114505761144b81600880546000838152600960205260408120829055600182018355919091527ff3f7a9fe364faab93b216da50a3214154f22a0a2b415b23a84c8169e8b636ee30155565b611473565b816001600160a01b0316836001600160a01b031614611473576114738382611706565b6001600160a01b03821661148a576105a4816117a3565b826001600160a01b0316826001600160a01b0316146105a4576105a4828261187c565b6001600160a01b0382166115035760405162461bcd60e51b815260206004820181905260248201527f4552433732313a206d696e7420746f20746865207a65726f2061646472657373604482015260640161046e565b61150c81610b8c565b156115595760405162461bcd60e51b815260206004820152601c60248201527f4552433732313a20746f6b656e20616c7265616479206d696e74656400000000604482015260640161046e565b611565600083836111d0565b6001600160a01b038216600090815260036020526040812080546001929061158e908490611de7565b909155505060008181526002602052604080822080546001600160a01b0319166001600160a01b03861690811790915590518392907fddf252ad1be2c89b69c2b068fc378daa952ba7f163c4a11628f55a4df523b3ef908290a45050565b6060816116105750506040805180820190915260018152600360fc1b602082015290565b8160005b811561163a578061162481611eb0565b91506116339050600a83611dff565b9150611614565b60008167ffffffffffffffff81111561166357634e487b7160e01b600052604160045260246000fd5b6040519080825280601f01601f19166020018201604052801561168d576020820181803683370190505b5090505b8415610cf9576116a2600183611e32565b91506116af600a86611ecb565b6116ba906030611de7565b60f81b8183815181106116dd57634e487b7160e01b600052603260045260246000fd5b60200101906001600160f81b031916908160001a9053506116ff600a86611dff565b9450611691565b600060016117138461084b565b61171d9190611e32565b600083815260076020526040902054909150808214611770576001600160a01b03841660009081526006602090815260408083208584528252808320548484528184208190558352600790915290208190555b5060009182526007602090815260408084208490556001600160a01b039094168352600681528383209183525290812055565b6008546000906117b590600190611e32565b600083815260096020526040812054600880549394509092849081106117eb57634e487b7160e01b600052603260045260246000fd5b90600052602060002001549050806008838154811061181a57634e487b7160e01b600052603260045260246000fd5b600091825260208083209091019290925582815260099091526040808220849055858252812055600880548061186057634e487b7160e01b600052603160045260246000fd5b6001900381819060005260206000200160009055905550505050565b60006118878361084b565b6001600160a01b039093166000908152600660209081526040808320868452825280832085905593825260079052919091209190915550565b8280546118cc90611e75565b90600052602060002090601f0160209004810192826118ee5760008555611934565b82601f1061190757805160ff1916838001178555611934565b82800160010185558215611934579182015b82811115611934578251825591602001919060010190611919565b50611940929150611944565b5090565b5b808211156119405760008155600101611945565b600067ffffffffffffffff8084111561197457611974611f0b565b604051601f8501601f19908116603f0116810190828211818310171561199c5761199c611f0b565b816040528093508581528686860111156119b557600080fd5b858560208301376000602087830101525050509392505050565b80356001600160a01b03811681146119e657600080fd5b919050565b600082601f8301126119fb578081fd5b6113ee83833560208501611959565b600060208284031215611a1b578081fd5b6113ee826119cf565b60008060408385031215611a36578081fd5b611a3f836119cf565b9150611a4d602084016119cf565b90509250929050565b600080600060608486031215611a6a578081fd5b611a73846119cf565b9250611a81602085016119cf565b9150604084013590509250925092565b60008060008060808587031215611aa6578081fd5b611aaf856119cf565b9350611abd602086016119cf565b925060408501359150606085013567ffffffffffffffff811115611adf578182fd5b8501601f81018713611aef578182fd5b611afe87823560208401611959565b91505092959194509250565b60008060408385031215611b1c578182fd5b611b25836119cf565b915060208301358015158114611b39578182fd5b809150509250929050565b60008060408385031215611b56578182fd5b611b5f836119cf565b946020939093013593505050565b600060208284031215611b7e578081fd5b81356113ee81611f21565b600060208284031215611b9a578081fd5b81516113ee81611f21565b600060208284031215611bb6578081fd5b813567ffffffffffffffff811115611bcc578182fd5b610cf9848285016119eb565b600060208284031215611be9578081fd5b5035919050565b60008060008060808587031215611c05578384fd5b84359350611c15602086016119cf565b925060408501359150606085013567ffffffffffffffff811115611c37578182fd5b611afe878288016119eb565b60008060408385031215611c55578182fd5b50508035926020909101359150565b60008151808452611c7c816020860160208601611e49565b601f01601f19169290920160200192915050565b60008351611ca2818460208801611e49565b835190830190611cb6818360208801611e49565b01949350505050565b6001600160a01b0385811682528416602082015260408101839052608060608201819052600090611cf290830184611c64565b9695505050505050565b6020815260006113ee6020830184611c64565b60208082526032908201527f4552433732313a207472616e7366657220746f206e6f6e20455243373231526560408201527131b2b4bb32b91034b6b83632b6b2b73a32b960711b606082015260800190565b6020808252818101527f4f776e61626c653a2063616c6c6572206973206e6f7420746865206f776e6572604082015260600190565b60208082526031908201527f4552433732313a207472616e736665722063616c6c6572206973206e6f74206f6040820152701ddb995c881b9bdc88185c1c1c9bdd9959607a1b606082015260800190565b60008219821115611dfa57611dfa611edf565b500190565b600082611e0e57611e0e611ef5565b500490565b6000816000190483118215151615611e2d57611e2d611edf565b500290565b600082821015611e4457611e44611edf565b500390565b60005b83811015611e64578181015183820152602001611e4c565b83811115610a395750506000910152565b600181811c90821680611e8957607f821691505b60208210811415611eaa57634e487b7160e01b600052602260045260246000fd5b50919050565b6000600019821415611ec457611ec4611edf565b5060010190565b600082611eda57611eda611ef5565b500690565b634e487b7160e01b600052601160045260246000fd5b634e487b7160e01b600052601260045260246000fd5b634e487b7160e01b600052604160045260246000fd5b6001600160e01b031981168114611f3757600080fd5b5056fea264697066735822122044ab22f0ae31871f956a896e37bf00fc9b0c66f6a11eaac956f403e2e3943d9c64736f6c63430008040033",
  "immutableReferences": {},
  "source": "// contracts/GLDToken.sol\n// SPDX-License-Identifier: MIT\npragma solidity ^0.8.0;\n\nimport \"@openzeppelin/contracts/token/ERC721/ERC721.sol\";\nimport \"@openzeppelin/contracts/token/ERC721/extensions/ERC721URIStorage.sol\";\nimport \"@openzeppelin/contracts/token/ERC721/extensions/ERC721Enumerable.sol\";\nimport \"@openzeppelin/contracts/access/Ownable.sol\";\nimport \"./IERC2981Royalties.sol\";\n\ncontract NFTToken is ERC721, ERC721Enumerable, ERC721URIStorage, Ownable, IERC2981Royalties {\n    struct Royalty {\n        address recipient;\n        uint256 value;\n    }\n    string internal baseUri;\n    mapping(uint256 => Royalty) internal _royalties;\n\n    constructor(string memory _baseURI_) ERC721(\"RarePorn\", \"NFP\") {\n        setBaseURI(_baseURI_);\n    }\n\n    function _beforeTokenTransfer(address from, address to, uint256 tokenId)\n        internal\n        override(ERC721, ERC721Enumerable)\n    {\n        super._beforeTokenTransfer(from, to, tokenId);\n    }\n\n    function _burn(uint256 tokenId) internal override(ERC721, ERC721URIStorage) {\n        super._burn(tokenId);\n    }\n\n    function tokenURI(uint256 tokenId)\n        public\n        view\n        override(ERC721, ERC721URIStorage)\n        returns (string memory)\n    {\n        return super.tokenURI(tokenId);\n    }\n\n    function supportsInterface(bytes4 interfaceId)\n        public\n        view\n        override(ERC721, ERC721Enumerable)\n        returns (bool)\n    {\n        return interfaceId == type(IERC2981Royalties).interfaceId\n            || super.supportsInterface(interfaceId);\n    }\n\n    /// @dev Sets token royalties\n    /// @param id the token id fir which we register the royalties\n    /// @param recipient recipient of the royalties\n    /// @param value percentage (using 2 decimals - 10000 = 100, 0 = 0)\n    function _setTokenRoyalty(\n        uint id,\n        address recipient,\n        uint256 value\n    ) internal {\n        require(value <= 10000, 'ERC2981Royalties: Too high');\n\n        _royalties[id] = Royalty(recipient, value);\n    }\n\n    /// @notice Called with the sale price to determine how much royalty is owed and to whom.\n    /// @param _tokenId - the NFT asset queried for royalty information\n    /// @param _value - the sale price of the NFT asset specified by _tokenId\n    /// @return _receiver - address of who should be sent the royalty payment\n    /// @return _royaltyAmount - the royalty payment amount for value sale price\n    function royaltyInfo(uint256 _tokenId, uint256 _value)\n        external\n        override\n        view\n        returns (address _receiver, uint256 _royaltyAmount)\n    {\n        Royalty memory royalty = _royalties[_tokenId];\n        return (royalty.recipient, (_value * royalty.value) / 10000);\n    }\n\n    function mint(uint tokenId, address royaltyRecipient, uint royaltyPercentage, string memory _uri) public {\n        _safeMint(msg.sender, tokenId);\n        _setTokenURI(tokenId, _uri);\n        _setTokenRoyalty(tokenId, royaltyRecipient, royaltyPercentage);\n    } \n\n    /**\n     * @dev Base URI for computing {tokenURI}. Empty by default, can be overriden\n     * in child contracts.\n     */\n    function _baseURI() internal view virtual override returns (string memory) {\n        return baseUri;\n    }\n\n    function setBaseURI(string memory _baseUri) public onlyOwner {\n        require(bytes(_baseUri).length > 0);\n        baseUri = _baseUri;\n    }\n}",
  "sourcePath": "/Users/yannick/Desktop/rarepornio/src/contracts/NFTToken.sol",
  "compiler": {
    "name": "solc",
    "version": "0.8.4+commit.c7e474f2.Emscripten.clang"
  },
  "schemaVersion": "3.3.4",
  "updatedAt": "2021-07-29T10:12:41.772Z",
  "devdoc": {
    "kind": "dev",
    "methods": {
      "approve(address,uint256)": {
        "details": "See {IERC721-approve}."
      },
      "balanceOf(address)": {
        "details": "See {IERC721-balanceOf}."
      },
      "getApproved(uint256)": {
        "details": "See {IERC721-getApproved}."
      },
      "isApprovedForAll(address,address)": {
        "details": "See {IERC721-isApprovedForAll}."
      },
      "name()": {
        "details": "See {IERC721Metadata-name}."
      },
      "owner()": {
        "details": "Returns the address of the current owner."
      },
      "ownerOf(uint256)": {
        "details": "See {IERC721-ownerOf}."
      },
      "renounceOwnership()": {
        "details": "Leaves the contract without owner. It will not be possible to call `onlyOwner` functions anymore. Can only be called by the current owner. NOTE: Renouncing ownership will leave the contract without an owner, thereby removing any functionality that is only available to the owner."
      },
      "royaltyInfo(uint256,uint256)": {
        "params": {
          "_tokenId": "- the NFT asset queried for royalty information",
          "_value": "- the sale price of the NFT asset specified by _tokenId"
        },
        "returns": {
          "_receiver": "- address of who should be sent the royalty payment",
          "_royaltyAmount": "- the royalty payment amount for value sale price"
        }
      },
      "safeTransferFrom(address,address,uint256)": {
        "details": "See {IERC721-safeTransferFrom}."
      },
      "safeTransferFrom(address,address,uint256,bytes)": {
        "details": "See {IERC721-safeTransferFrom}."
      },
      "setApprovalForAll(address,bool)": {
        "details": "See {IERC721-setApprovalForAll}."
      },
      "symbol()": {
        "details": "See {IERC721Metadata-symbol}."
      },
      "tokenByIndex(uint256)": {
        "details": "See {IERC721Enumerable-tokenByIndex}."
      },
      "tokenOfOwnerByIndex(address,uint256)": {
        "details": "See {IERC721Enumerable-tokenOfOwnerByIndex}."
      },
      "totalSupply()": {
        "details": "See {IERC721Enumerable-totalSupply}."
      },
      "transferFrom(address,address,uint256)": {
        "details": "See {IERC721-transferFrom}."
      },
      "transferOwnership(address)": {
        "details": "Transfers ownership of the contract to a new account (`newOwner`). Can only be called by the current owner."
      }
    },
    "version": 1
  },
  "userdoc": {
    "kind": "user",
    "methods": {
      "royaltyInfo(uint256,uint256)": {
        "notice": "Called with the sale price to determine how much royalty is owed and to whom."
      }
    },
    "version": 1
  }
}