{
  "contractName": "NFTToken",
  "abi": [
    {
      "inputs": [],
      "stateMutability": "nonpayable",
      "type": "constructor"
    },
    {
      "anonymous": false,
      "inputs": [
        {
          "indexed": true,
          "internalType": "address",
          "name": "owner",
          "type": "address"
        },
        {
          "indexed": true,
          "internalType": "address",
          "name": "approved",
          "type": "address"
        },
        {
          "indexed": true,
          "internalType": "uint256",
          "name": "tokenId",
          "type": "uint256"
        }
      ],
      "name": "Approval",
      "type": "event"
    },
    {
      "anonymous": false,
      "inputs": [
        {
          "indexed": true,
          "internalType": "address",
          "name": "owner",
          "type": "address"
        },
        {
          "indexed": true,
          "internalType": "address",
          "name": "operator",
          "type": "address"
        },
        {
          "indexed": false,
          "internalType": "bool",
          "name": "approved",
          "type": "bool"
        }
      ],
      "name": "ApprovalForAll",
      "type": "event"
    },
    {
      "anonymous": false,
      "inputs": [
        {
          "indexed": true,
          "internalType": "address",
          "name": "from",
          "type": "address"
        },
        {
          "indexed": true,
          "internalType": "address",
          "name": "to",
          "type": "address"
        },
        {
          "indexed": true,
          "internalType": "uint256",
          "name": "tokenId",
          "type": "uint256"
        }
      ],
      "name": "Transfer",
      "type": "event"
    },
    {
      "inputs": [
        {
          "internalType": "address",
          "name": "to",
          "type": "address"
        },
        {
          "internalType": "uint256",
          "name": "tokenId",
          "type": "uint256"
        }
      ],
      "name": "approve",
      "outputs": [],
      "stateMutability": "nonpayable",
      "type": "function"
    },
    {
      "inputs": [
        {
          "internalType": "address",
          "name": "owner",
          "type": "address"
        }
      ],
      "name": "balanceOf",
      "outputs": [
        {
          "internalType": "uint256",
          "name": "",
          "type": "uint256"
        }
      ],
      "stateMutability": "view",
      "type": "function",
      "constant": true
    },
    {
      "inputs": [
        {
          "internalType": "uint256",
          "name": "tokenId",
          "type": "uint256"
        }
      ],
      "name": "getApproved",
      "outputs": [
        {
          "internalType": "address",
          "name": "",
          "type": "address"
        }
      ],
      "stateMutability": "view",
      "type": "function",
      "constant": true
    },
    {
      "inputs": [
        {
          "internalType": "address",
          "name": "owner",
          "type": "address"
        },
        {
          "internalType": "address",
          "name": "operator",
          "type": "address"
        }
      ],
      "name": "isApprovedForAll",
      "outputs": [
        {
          "internalType": "bool",
          "name": "",
          "type": "bool"
        }
      ],
      "stateMutability": "view",
      "type": "function",
      "constant": true
    },
    {
      "inputs": [],
      "name": "name",
      "outputs": [
        {
          "internalType": "string",
          "name": "",
          "type": "string"
        }
      ],
      "stateMutability": "view",
      "type": "function",
      "constant": true
    },
    {
      "inputs": [
        {
          "internalType": "uint256",
          "name": "tokenId",
          "type": "uint256"
        }
      ],
      "name": "ownerOf",
      "outputs": [
        {
          "internalType": "address",
          "name": "",
          "type": "address"
        }
      ],
      "stateMutability": "view",
      "type": "function",
      "constant": true
    },
    {
      "inputs": [
        {
          "internalType": "address",
          "name": "from",
          "type": "address"
        },
        {
          "internalType": "address",
          "name": "to",
          "type": "address"
        },
        {
          "internalType": "uint256",
          "name": "tokenId",
          "type": "uint256"
        }
      ],
      "name": "safeTransferFrom",
      "outputs": [],
      "stateMutability": "nonpayable",
      "type": "function"
    },
    {
      "inputs": [
        {
          "internalType": "address",
          "name": "from",
          "type": "address"
        },
        {
          "internalType": "address",
          "name": "to",
          "type": "address"
        },
        {
          "internalType": "uint256",
          "name": "tokenId",
          "type": "uint256"
        },
        {
          "internalType": "bytes",
          "name": "_data",
          "type": "bytes"
        }
      ],
      "name": "safeTransferFrom",
      "outputs": [],
      "stateMutability": "nonpayable",
      "type": "function"
    },
    {
      "inputs": [
        {
          "internalType": "address",
          "name": "operator",
          "type": "address"
        },
        {
          "internalType": "bool",
          "name": "approved",
          "type": "bool"
        }
      ],
      "name": "setApprovalForAll",
      "outputs": [],
      "stateMutability": "nonpayable",
      "type": "function"
    },
    {
      "inputs": [
        {
          "internalType": "bytes4",
          "name": "interfaceId",
          "type": "bytes4"
        }
      ],
      "name": "supportsInterface",
      "outputs": [
        {
          "internalType": "bool",
          "name": "",
          "type": "bool"
        }
      ],
      "stateMutability": "view",
      "type": "function",
      "constant": true
    },
    {
      "inputs": [],
      "name": "symbol",
      "outputs": [
        {
          "internalType": "string",
          "name": "",
          "type": "string"
        }
      ],
      "stateMutability": "view",
      "type": "function",
      "constant": true
    },
    {
      "inputs": [
        {
          "internalType": "uint256",
          "name": "tokenId",
          "type": "uint256"
        }
      ],
      "name": "tokenURI",
      "outputs": [
        {
          "internalType": "string",
          "name": "",
          "type": "string"
        }
      ],
      "stateMutability": "view",
      "type": "function",
      "constant": true
    },
    {
      "inputs": [
        {
          "internalType": "address",
          "name": "from",
          "type": "address"
        },
        {
          "internalType": "address",
          "name": "to",
          "type": "address"
        },
        {
          "internalType": "uint256",
          "name": "tokenId",
          "type": "uint256"
        }
      ],
      "name": "transferFrom",
      "outputs": [],
      "stateMutability": "nonpayable",
      "type": "function"
    },
    {
      "inputs": [
        {
          "internalType": "uint256",
          "name": "tokenId",
          "type": "uint256"
        }
      ],
      "name": "mint",
      "outputs": [],
      "stateMutability": "nonpayable",
      "type": "function"
    }
  ],
  "bytecode": "0x60806040523480156200001157600080fd5b50604080518082018252600981526827232a102a37b5b2b760b91b60208083019182528351808501909452600384526213919560ea1b9084015281519192916200005e916000916200007d565b508051620000749060019060208401906200007d565b50505062000160565b8280546200008b9062000123565b90600052602060002090601f016020900481019282620000af5760008555620000fa565b82601f10620000ca57805160ff1916838001178555620000fa565b82800160010185558215620000fa579182015b82811115620000fa578251825591602001919060010190620000dd565b50620001089291506200010c565b5090565b5b808211156200010857600081556001016200010d565b600181811c908216806200013857607f821691505b602082108114156200015a57634e487b7160e01b600052602260045260246000fd5b50919050565b61158a80620001706000396000f3fe608060405234801561001057600080fd5b50600436106100ea5760003560e01c806370a082311161008c578063a22cb46511610066578063a22cb465146101e1578063b88d4fde146101f4578063c87b56dd14610207578063e985e9c51461021a57600080fd5b806370a08231146101a557806395d89b41146101c6578063a0712d68146101ce57600080fd5b8063095ea7b3116100c8578063095ea7b31461015757806323b872dd1461016c57806342842e0e1461017f5780636352211e1461019257600080fd5b806301ffc9a7146100ef57806306fdde0314610117578063081812fc1461012c575b600080fd5b6101026100fd366004611285565b610256565b60405190151581526020015b60405180910390f35b61011f6102a8565b60405161010e919061136d565b61013f61013a3660046112bd565b61033a565b6040516001600160a01b03909116815260200161010e565b61016a61016536600461125c565b6103d4565b005b61016a61017a366004611112565b6104ea565b61016a61018d366004611112565b61051b565b61013f6101a03660046112bd565b610536565b6101b86101b33660046110c6565b6105ad565b60405190815260200161010e565b61011f610634565b61016a6101dc3660046112bd565b610643565b61016a6101ef366004611222565b610650565b61016a61020236600461114d565b610715565b61011f6102153660046112bd565b61074d565b6101026102283660046110e0565b6001600160a01b03918216600090815260056020908152604080832093909416825291909152205460ff1690565b60006001600160e01b031982166380ac58cd60e01b148061028757506001600160e01b03198216635b5e139f60e01b145b806102a257506301ffc9a760e01b6001600160e01b03198316145b92915050565b6060600080546102b790611492565b80601f01602080910402602001604051908101604052809291908181526020018280546102e390611492565b80156103305780601f1061030557610100808354040283529160200191610330565b820191906000526020600020905b81548152906001019060200180831161031357829003601f168201915b5050505050905090565b6000818152600260205260408120546001600160a01b03166103b85760405162461bcd60e51b815260206004820152602c60248201527f4552433732313a20617070726f76656420717565727920666f72206e6f6e657860448201526b34b9ba32b73a103a37b5b2b760a11b60648201526084015b60405180910390fd5b506000908152600460205260409020546001600160a01b031690565b60006103df82610536565b9050806001600160a01b0316836001600160a01b0316141561044d5760405162461bcd60e51b815260206004820152602160248201527f4552433732313a20617070726f76616c20746f2063757272656e74206f776e656044820152603960f91b60648201526084016103af565b336001600160a01b038216148061046957506104698133610228565b6104db5760405162461bcd60e51b815260206004820152603860248201527f4552433732313a20617070726f76652063616c6c6572206973206e6f74206f7760448201527f6e6572206e6f7220617070726f76656420666f7220616c6c000000000000000060648201526084016103af565b6104e583836108d4565b505050565b6104f43382610942565b6105105760405162461bcd60e51b81526004016103af906113d2565b6104e5838383610a35565b6104e583838360405180602001604052806000815250610715565b6000818152600260205260408120546001600160a01b0316806102a25760405162461bcd60e51b815260206004820152602960248201527f4552433732313a206f776e657220717565727920666f72206e6f6e657869737460448201526832b73a103a37b5b2b760b91b60648201526084016103af565b60006001600160a01b0382166106185760405162461bcd60e51b815260206004820152602a60248201527f4552433732313a2062616c616e636520717565727920666f7220746865207a65604482015269726f206164647265737360b01b60648201526084016103af565b506001600160a01b031660009081526003602052604090205490565b6060600180546102b790611492565b61064d3382610bd5565b50565b6001600160a01b0382163314156106a95760405162461bcd60e51b815260206004820152601960248201527f4552433732313a20617070726f766520746f2063616c6c65720000000000000060448201526064016103af565b3360008181526005602090815260408083206001600160a01b03871680855290835292819020805460ff191686151590811790915590519081529192917f17307eab39ab6107e8899845ad3d59bd9653f200f220920489ca2b5937696c31910160405180910390a35050565b61071f3383610942565b61073b5760405162461bcd60e51b81526004016103af906113d2565b61074784848484610bf3565b50505050565b6000818152600260205260409020546060906001600160a01b03166107ce5760405162461bcd60e51b815260206004820152603160248201527f45524337323155524953746f726167653a2055524920717565727920666f72206044820152703737b732bc34b9ba32b73a103a37b5b2b760791b60648201526084016103af565b600082815260066020526040812080546107e790611492565b80601f016020809104026020016040519081016040528092919081815260200182805461081390611492565b80156108605780601f1061083557610100808354040283529160200191610860565b820191906000526020600020905b81548152906001019060200180831161084357829003601f168201915b50505050509050600061087e60408051602081019091526000815290565b9050805160001415610891575092915050565b8151156108c35780826040516020016108ab929190611301565b60405160208183030381529060405292505050919050565b6108cc84610c26565b949350505050565b600081815260046020526040902080546001600160a01b0319166001600160a01b038416908117909155819061090982610536565b6001600160a01b03167f8c5be1e5ebec7d5bd14f71427d1e84f3dd0314c0f7b2291e5b200ac8c7c3b92560405160405180910390a45050565b6000818152600260205260408120546001600160a01b03166109bb5760405162461bcd60e51b815260206004820152602c60248201527f4552433732313a206f70657261746f7220717565727920666f72206e6f6e657860448201526b34b9ba32b73a103a37b5b2b760a11b60648201526084016103af565b60006109c683610536565b9050806001600160a01b0316846001600160a01b03161480610a015750836001600160a01b03166109f68461033a565b6001600160a01b0316145b806108cc57506001600160a01b0380821660009081526005602090815260408083209388168352929052205460ff166108cc565b826001600160a01b0316610a4882610536565b6001600160a01b031614610ab05760405162461bcd60e51b815260206004820152602960248201527f4552433732313a207472616e73666572206f6620746f6b656e2074686174206960448201526839903737ba1037bbb760b91b60648201526084016103af565b6001600160a01b038216610b125760405162461bcd60e51b8152602060048201526024808201527f4552433732313a207472616e7366657220746f20746865207a65726f206164646044820152637265737360e01b60648201526084016103af565b610b1d6000826108d4565b6001600160a01b0383166000908152600360205260408120805460019290610b4690849061144f565b90915550506001600160a01b0382166000908152600360205260408120805460019290610b74908490611423565b909155505060008181526002602052604080822080546001600160a01b0319166001600160a01b0386811691821790925591518493918716917fddf252ad1be2c89b69c2b068fc378daa952ba7f163c4a11628f55a4df523b3ef91a4505050565b610bef828260405180602001604052806000815250610d0e565b5050565b610bfe848484610a35565b610c0a84848484610d41565b6107475760405162461bcd60e51b81526004016103af90611380565b6000818152600260205260409020546060906001600160a01b0316610ca55760405162461bcd60e51b815260206004820152602f60248201527f4552433732314d657461646174613a2055524920717565727920666f72206e6f60448201526e3732bc34b9ba32b73a103a37b5b2b760891b60648201526084016103af565b6000610cbc60408051602081019091526000815290565b90506000815111610cdc5760405180602001604052806000815250610d07565b80610ce684610e4e565b604051602001610cf7929190611301565b6040516020818303038152906040525b9392505050565b610d188383610f68565b610d256000848484610d41565b6104e55760405162461bcd60e51b81526004016103af90611380565b60006001600160a01b0384163b15610e4357604051630a85bd0160e11b81526001600160a01b0385169063150b7a0290610d85903390899088908890600401611330565b602060405180830381600087803b158015610d9f57600080fd5b505af1925050508015610dcf575060408051601f3d908101601f19168201909252610dcc918101906112a1565b60015b610e29573d808015610dfd576040519150601f19603f3d011682016040523d82523d6000602084013e610e02565b606091505b508051610e215760405162461bcd60e51b81526004016103af90611380565b805181602001fd5b6001600160e01b031916630a85bd0160e11b1490506108cc565b506001949350505050565b606081610e725750506040805180820190915260018152600360fc1b602082015290565b8160005b8115610e9c5780610e86816114cd565b9150610e959050600a8361143b565b9150610e76565b60008167ffffffffffffffff811115610ec557634e487b7160e01b600052604160045260246000fd5b6040519080825280601f01601f191660200182016040528015610eef576020820181803683370190505b5090505b84156108cc57610f0460018361144f565b9150610f11600a866114e8565b610f1c906030611423565b60f81b818381518110610f3f57634e487b7160e01b600052603260045260246000fd5b60200101906001600160f81b031916908160001a905350610f61600a8661143b565b9450610ef3565b6001600160a01b038216610fbe5760405162461bcd60e51b815260206004820181905260248201527f4552433732313a206d696e7420746f20746865207a65726f206164647265737360448201526064016103af565b6000818152600260205260409020546001600160a01b0316156110235760405162461bcd60e51b815260206004820152601c60248201527f4552433732313a20746f6b656e20616c7265616479206d696e7465640000000060448201526064016103af565b6001600160a01b038216600090815260036020526040812080546001929061104c908490611423565b909155505060008181526002602052604080822080546001600160a01b0319166001600160a01b03861690811790915590518392907fddf252ad1be2c89b69c2b068fc378daa952ba7f163c4a11628f55a4df523b3ef908290a45050565b80356001600160a01b03811681146110c157600080fd5b919050565b6000602082840312156110d7578081fd5b610d07826110aa565b600080604083850312156110f2578081fd5b6110fb836110aa565b9150611109602084016110aa565b90509250929050565b600080600060608486031215611126578081fd5b61112f846110aa565b925061113d602085016110aa565b9150604084013590509250925092565b60008060008060808587031215611162578081fd5b61116b856110aa565b9350611179602086016110aa565b925060408501359150606085013567ffffffffffffffff8082111561119c578283fd5b818701915087601f8301126111af578283fd5b8135818111156111c1576111c1611528565b604051601f8201601f19908116603f011681019083821181831017156111e9576111e9611528565b816040528281528a6020848701011115611201578586fd5b82602086016020830137918201602001949094529598949750929550505050565b60008060408385031215611234578182fd5b61123d836110aa565b915060208301358015158114611251578182fd5b809150509250929050565b6000806040838503121561126e578182fd5b611277836110aa565b946020939093013593505050565b600060208284031215611296578081fd5b8135610d078161153e565b6000602082840312156112b2578081fd5b8151610d078161153e565b6000602082840312156112ce578081fd5b5035919050565b600081518084526112ed816020860160208601611466565b601f01601f19169290920160200192915050565b60008351611313818460208801611466565b835190830190611327818360208801611466565b01949350505050565b6001600160a01b0385811682528416602082015260408101839052608060608201819052600090611363908301846112d5565b9695505050505050565b602081526000610d0760208301846112d5565b60208082526032908201527f4552433732313a207472616e7366657220746f206e6f6e20455243373231526560408201527131b2b4bb32b91034b6b83632b6b2b73a32b960711b606082015260800190565b60208082526031908201527f4552433732313a207472616e736665722063616c6c6572206973206e6f74206f6040820152701ddb995c881b9bdc88185c1c1c9bdd9959607a1b606082015260800190565b60008219821115611436576114366114fc565b500190565b60008261144a5761144a611512565b500490565b600082821015611461576114616114fc565b500390565b60005b83811015611481578181015183820152602001611469565b838111156107475750506000910152565b600181811c908216806114a657607f821691505b602082108114156114c757634e487b7160e01b600052602260045260246000fd5b50919050565b60006000198214156114e1576114e16114fc565b5060010190565b6000826114f7576114f7611512565b500690565b634e487b7160e01b600052601160045260246000fd5b634e487b7160e01b600052601260045260246000fd5b634e487b7160e01b600052604160045260246000fd5b6001600160e01b03198116811461064d57600080fdfea26469706673582212204ed08fa1fb0aad344647982bc3d246979c0b86b60dbb46c2790a9c1791beb43564736f6c63430008040033",
  "immutableReferences": {},
  "source": "// contracts/GLDToken.sol\n// SPDX-License-Identifier: MIT\npragma solidity ^0.8.0;\n\nimport \"@openzeppelin/contracts/token/ERC721/ERC721.sol\";\nimport \"@openzeppelin/contracts/token/ERC721/extensions/ERC721URIStorage.sol\";\n\ncontract NFTToken is ERC721URIStorage {\n    constructor() ERC721(\"NFT Token\", \"NFT\") {\n    }\n\n    function mint(uint tokenId) public {\n        _safeMint(msg.sender, tokenId);\n    } \n}",
  "sourcePath": "/Users/yannick/Desktop/rarepornio/src/contracts/NFTToken.sol",
  "compiler": {
    "name": "solc",
    "version": "0.8.4+commit.c7e474f2.Emscripten.clang"
  },
  "schemaVersion": "3.3.4",
  "updatedAt": "2021-06-15T14:05:21.784Z",
  "networkType": "ethereum",
  "devdoc": {
    "kind": "dev",
    "methods": {
      "approve(address,uint256)": {
        "details": "See {IERC721-approve}."
      },
      "balanceOf(address)": {
        "details": "See {IERC721-balanceOf}."
      },
      "getApproved(uint256)": {
        "details": "See {IERC721-getApproved}."
      },
      "isApprovedForAll(address,address)": {
        "details": "See {IERC721-isApprovedForAll}."
      },
      "name()": {
        "details": "See {IERC721Metadata-name}."
      },
      "ownerOf(uint256)": {
        "details": "See {IERC721-ownerOf}."
      },
      "safeTransferFrom(address,address,uint256)": {
        "details": "See {IERC721-safeTransferFrom}."
      },
      "safeTransferFrom(address,address,uint256,bytes)": {
        "details": "See {IERC721-safeTransferFrom}."
      },
      "setApprovalForAll(address,bool)": {
        "details": "See {IERC721-setApprovalForAll}."
      },
      "supportsInterface(bytes4)": {
        "details": "See {IERC165-supportsInterface}."
      },
      "symbol()": {
        "details": "See {IERC721Metadata-symbol}."
      },
      "tokenURI(uint256)": {
        "details": "See {IERC721Metadata-tokenURI}."
      },
      "transferFrom(address,address,uint256)": {
        "details": "See {IERC721-transferFrom}."
      }
    },
    "version": 1
  },
  "userdoc": {
    "kind": "user",
    "methods": {},
    "version": 1
  }
}