{
  "contractName": "Operator",
  "abi": [
    {
      "inputs": [
        {
          "internalType": "address",
          "name": "_feeManager",
          "type": "address"
        },
        {
          "internalType": "address",
          "name": "_feeRecipient",
          "type": "address"
        }
      ],
      "stateMutability": "nonpayable",
      "type": "constructor"
    },
    {
      "anonymous": false,
      "inputs": [
        {
          "indexed": false,
          "internalType": "address",
          "name": "from",
          "type": "address"
        },
        {
          "indexed": false,
          "internalType": "address",
          "name": "to",
          "type": "address"
        },
        {
          "indexed": false,
          "internalType": "uint256",
          "name": "tokenId",
          "type": "uint256"
        }
      ],
      "name": "ItemGifted",
      "type": "event"
    },
    {
      "anonymous": false,
      "inputs": [
        {
          "indexed": true,
          "internalType": "address",
          "name": "previousOwner",
          "type": "address"
        },
        {
          "indexed": true,
          "internalType": "address",
          "name": "newOwner",
          "type": "address"
        }
      ],
      "name": "OwnershipTransferred",
      "type": "event"
    },
    {
      "anonymous": false,
      "inputs": [
        {
          "indexed": false,
          "internalType": "address",
          "name": "from",
          "type": "address"
        },
        {
          "indexed": false,
          "internalType": "address",
          "name": "to",
          "type": "address"
        },
        {
          "indexed": false,
          "internalType": "uint256",
          "name": "tokenId",
          "type": "uint256"
        }
      ],
      "name": "SaleAwarded",
      "type": "event"
    },
    {
      "inputs": [],
      "name": "owner",
      "outputs": [
        {
          "internalType": "address",
          "name": "",
          "type": "address"
        }
      ],
      "stateMutability": "view",
      "type": "function",
      "constant": true
    },
    {
      "inputs": [],
      "name": "renounceOwnership",
      "outputs": [],
      "stateMutability": "nonpayable",
      "type": "function"
    },
    {
      "inputs": [
        {
          "internalType": "address",
          "name": "newOwner",
          "type": "address"
        }
      ],
      "name": "transferOwnership",
      "outputs": [],
      "stateMutability": "nonpayable",
      "type": "function"
    },
    {
      "inputs": [
        {
          "internalType": "address",
          "name": "_feeManager",
          "type": "address"
        }
      ],
      "name": "changeFeeManager",
      "outputs": [],
      "stateMutability": "nonpayable",
      "type": "function"
    },
    {
      "inputs": [
        {
          "internalType": "address",
          "name": "_feeRecipient",
          "type": "address"
        }
      ],
      "name": "changeFeeRecipient",
      "outputs": [],
      "stateMutability": "nonpayable",
      "type": "function"
    },
    {
      "inputs": [],
      "name": "getFeeManager",
      "outputs": [
        {
          "internalType": "address",
          "name": "",
          "type": "address"
        }
      ],
      "stateMutability": "view",
      "type": "function",
      "constant": true
    },
    {
      "inputs": [],
      "name": "getFeeRecipient",
      "outputs": [
        {
          "internalType": "address",
          "name": "",
          "type": "address"
        }
      ],
      "stateMutability": "view",
      "type": "function",
      "constant": true
    },
    {
      "inputs": [
        {
          "internalType": "uint256",
          "name": "tokenId",
          "type": "uint256"
        },
        {
          "internalType": "address",
          "name": "buyer",
          "type": "address"
        },
        {
          "internalType": "uint256",
          "name": "price",
          "type": "uint256"
        },
        {
          "internalType": "address",
          "name": "nftContract",
          "type": "address"
        },
        {
          "internalType": "address",
          "name": "owner",
          "type": "address"
        },
        {
          "internalType": "address",
          "name": "currency",
          "type": "address"
        }
      ],
      "name": "awardItem",
      "outputs": [],
      "stateMutability": "nonpayable",
      "type": "function"
    },
    {
      "inputs": [
        {
          "internalType": "uint256",
          "name": "tokenId",
          "type": "uint256"
        },
        {
          "internalType": "address",
          "name": "receiver",
          "type": "address"
        },
        {
          "internalType": "address",
          "name": "nftContract",
          "type": "address"
        },
        {
          "internalType": "address",
          "name": "owner",
          "type": "address"
        }
      ],
      "name": "giftItem",
      "outputs": [],
      "stateMutability": "nonpayable",
      "type": "function"
    }
  ],
  "bytecode": "0x608060405234801561001057600080fd5b50604051610c2c380380610c2c83398101604081905261002f916100bd565b600080546001600160a01b031916339081178255604051909182917f8be0079c531659141344cd1fd0a4f28419497f9722a3daafe3b4186f6b6457e0908290a350600180546001600160a01b039384166001600160a01b031991821617909155600280549290931691161790556100ef565b80516001600160a01b03811681146100b857600080fd5b919050565b600080604083850312156100cf578182fd5b6100d8836100a1565b91506100e6602084016100a1565b90509250929050565b610b2e806100fe6000396000f3fe608060405234801561001057600080fd5b50600436106100935760003560e01c80638da5cb5b116100665780638da5cb5b146100ec578063a53b4dcf146100fd578063bfc810b614610110578063f2d6382614610123578063f2fde38b1461012b57600080fd5b806323604071146100985780634ccb20c0146100ad578063715018a6146100d157806375e91fd4146100d9575b600080fd5b6100ab6100a6366004610929565b61013e565b005b6100b5610193565b6040516001600160a01b03909116815260200160405180910390f35b6100ab6101ce565b6100ab6100e73660046109ce565b610242565b6000546001600160a01b03166100b5565b6100ab61010b366004610982565b610617565b6100ab61011e366004610929565b61079c565b6100b56107e8565b6100ab610139366004610929565b610823565b6000546001600160a01b031633146101715760405162461bcd60e51b815260040161016890610a57565b60405180910390fd5b600280546001600160a01b0319166001600160a01b0392909216919091179055565b600080546001600160a01b031633146101be5760405162461bcd60e51b815260040161016890610a57565b506002546001600160a01b031690565b6000546001600160a01b031633146101f85760405162461bcd60e51b815260040161016890610a57565b600080546040516001600160a01b03909116907f8be0079c531659141344cd1fd0a4f28419497f9722a3daafe3b4186f6b6457e0908390a3600080546001600160a01b0319169055565b6000546001600160a01b0316331461026c5760405162461bcd60e51b815260040161016890610a57565b6001600160a01b0385166102c25760405162461bcd60e51b815260206004820181905260248201527f42757965722063616e6e6f7420626520746865207a65726f20616464726573736044820152606401610168565b6001600160a01b0382166103185760405162461bcd60e51b815260206004820181905260248201527f4f776e65722063616e6e6f7420626520746865207a65726f20616464726573736044820152606401610168565b600084116103725760405162461bcd60e51b815260206004820152602160248201527f50726963652073686f756c642062652067726561746572207468616e207a65726044820152606f60f81b6064820152608401610168565b60015460405163468c75a160e01b81526001600160a01b038481166004830152600092169063468c75a19060240160206040518083038186803b1580156103b857600080fd5b505afa1580156103cc573d6000803e3d6000fd5b505050506040513d601f19601f820116820180604052508101906103f0919061096a565b90506000811161043b5760405162461bcd60e51b81526020600482015260166024820152750436f6d6d697373696f6e2063616e6e6f7420626520360541b6044820152606401610168565b600061271061044a8388610aac565b6104549190610a8c565b905060006104628288610acb565b6040516323b872dd60e01b81529091506001600160a01b038516906323b872dd90610495908b9089908690600401610a33565b602060405180830381600087803b1580156104af57600080fd5b505af11580156104c3573d6000803e3d6000fd5b505050506040513d601f19601f820116820180604052508101906104e7919061094a565b506002546040516323b872dd60e01b81526001600160a01b03808716926323b872dd9261051c928d9216908790600401610a33565b602060405180830381600087803b15801561053657600080fd5b505af115801561054a573d6000803e3d6000fd5b505050506040513d601f19601f8201168201806040525081019061056e919061094a565b50604051632142170760e11b81526001600160a01b038716906342842e0e9061059f9088908c908e90600401610a33565b600060405180830381600087803b1580156105b957600080fd5b505af11580156105cd573d6000803e3d6000fd5b505050507fe16bf114d42e1c89fce0154b6d5c527b5b11b50e59080f64279c696652bb049185898b60405161060493929190610a33565b60405180910390a1505050505050505050565b6000546001600160a01b031633146106415760405162461bcd60e51b815260040161016890610a57565b6001600160a01b0383166106a35760405162461bcd60e51b815260206004820152602360248201527f72656365697665722063616e6e6f7420626520746865207a65726f206164647260448201526265737360e81b6064820152608401610168565b6001600160a01b0381166106f95760405162461bcd60e51b815260206004820181905260248201527f4f776e65722063616e6e6f7420626520746865207a65726f20616464726573736044820152606401610168565b604051632142170760e11b81526001600160a01b038316906342842e0e9061072990849087908990600401610a33565b600060405180830381600087803b15801561074357600080fd5b505af1158015610757573d6000803e3d6000fd5b505050507f4c1150bc499101dd9cf2ef089d84734f6abdbd75f56161fd6757f6e3a467e43e81848660405161078e93929190610a33565b60405180910390a150505050565b6000546001600160a01b031633146107c65760405162461bcd60e51b815260040161016890610a57565b600180546001600160a01b0319166001600160a01b0392909216919091179055565b600080546001600160a01b031633146108135760405162461bcd60e51b815260040161016890610a57565b506001546001600160a01b031690565b6000546001600160a01b0316331461084d5760405162461bcd60e51b815260040161016890610a57565b6001600160a01b0381166108b25760405162461bcd60e51b815260206004820152602660248201527f4f776e61626c653a206e6577206f776e657220697320746865207a65726f206160448201526564647265737360d01b6064820152608401610168565b600080546040516001600160a01b03808516939216917f8be0079c531659141344cd1fd0a4f28419497f9722a3daafe3b4186f6b6457e091a3600080546001600160a01b0319166001600160a01b0392909216919091179055565b80356001600160a01b038116811461092457600080fd5b919050565b60006020828403121561093a578081fd5b6109438261090d565b9392505050565b60006020828403121561095b578081fd5b81518015158114610943578182fd5b60006020828403121561097b578081fd5b5051919050565b60008060008060808587031215610997578283fd5b843593506109a76020860161090d565b92506109b56040860161090d565b91506109c36060860161090d565b905092959194509250565b60008060008060008060c087890312156109e6578182fd5b863595506109f66020880161090d565b945060408701359350610a0b6060880161090d565b9250610a196080880161090d565b9150610a2760a0880161090d565b90509295509295509295565b6001600160a01b039384168152919092166020820152604081019190915260600190565b6020808252818101527f4f776e61626c653a2063616c6c6572206973206e6f7420746865206f776e6572604082015260600190565b600082610aa757634e487b7160e01b81526012600452602481fd5b500490565b6000816000190483118215151615610ac657610ac6610ae2565b500290565b600082821015610add57610add610ae2565b500390565b634e487b7160e01b600052601160045260246000fdfea26469706673582212205d69f11447fedbef1d5387f0a1514b4875346152d2d1ce5901cce21972d68ce064736f6c63430008040033",
  "immutableReferences": {},
  "source": "// contracts/GLDToken.sol\n// SPDX-License-Identifier: MIT\npragma solidity ^0.8.0;\n\nimport \"@openzeppelin/contracts/token/ERC20/ERC20.sol\";\nimport \"@openzeppelin/contracts/token/ERC721/ERC721.sol\";\nimport \"./FeeManager.sol\";\nimport \"@openzeppelin/contracts/access/Ownable.sol\";\n\ncontract Operator is Ownable {\n    address private feeManager;\n    address private feeRecipient;\n\n    event SaleAwarded(address from, address to, uint tokenId);\n    event ItemGifted(address from, address to, uint tokenId);\n    \n    constructor(address _feeManager, address _feeRecipient) {\n        feeManager = _feeManager;\n        feeRecipient = _feeRecipient;\n    }\n\n    function changeFeeManager(address _feeManager) public onlyOwner {\n        feeManager = _feeManager;\n    }\n\n    function changeFeeRecipient(address _feeRecipient) public onlyOwner {\n        feeRecipient = _feeRecipient;\n    }\n\n    function getFeeManager() public view onlyOwner returns(address) {\n        return feeManager;\n    }\n\n    function getFeeRecipient() public view onlyOwner returns(address) {\n        return feeRecipient;\n    }\n\n    function awardItem(uint tokenId, address buyer, uint price, address nftContract, address owner, address currency) public onlyOwner {\n        require(buyer != address(0), \"Buyer cannot be the zero address\");\n        require(owner != address(0), \"Owner cannot be the zero address\");\n        require(price > 0, \"Price should be greater than zero\");\n\n        uint commission = FeeManager(feeManager).getPartnerFee(owner);\n        require(commission > 0, \"Commission cannot be 0\");\n        uint fee = price * commission /10000;\n        uint amount = price - fee;\n\n        ERC20(currency).transferFrom(buyer, owner, amount);\n        ERC20(currency).transferFrom(buyer, feeRecipient, fee);\n        ERC721(nftContract).safeTransferFrom(owner, buyer, tokenId);\n        emit SaleAwarded(owner, buyer, tokenId);\n    }\n\n    // TODO: To be tested\n    function giftItem(uint tokenId, address receiver, address nftContract, address owner) public onlyOwner {\n        require(receiver != address(0), \"receiver cannot be the zero address\");\n        require(owner != address(0), \"Owner cannot be the zero address\");\n\n        ERC721(nftContract).safeTransferFrom(owner, receiver, tokenId);\n        emit ItemGifted(owner, receiver, tokenId);\n    }\n}",
  "sourcePath": "/Users/yannick/Desktop/rarepornio/src/contracts/Operator.sol",
  "compiler": {
    "name": "solc",
    "version": "0.8.4+commit.c7e474f2.Emscripten.clang"
  },
  "schemaVersion": "3.3.4",
  "updatedAt": "2021-07-01T07:44:04.935Z",
  "networkType": "ethereum",
  "devdoc": {
    "kind": "dev",
    "methods": {
      "owner()": {
        "details": "Returns the address of the current owner."
      },
      "renounceOwnership()": {
        "details": "Leaves the contract without owner. It will not be possible to call `onlyOwner` functions anymore. Can only be called by the current owner. NOTE: Renouncing ownership will leave the contract without an owner, thereby removing any functionality that is only available to the owner."
      },
      "transferOwnership(address)": {
        "details": "Transfers ownership of the contract to a new account (`newOwner`). Can only be called by the current owner."
      }
    },
    "version": 1
  },
  "userdoc": {
    "kind": "user",
    "methods": {},
    "version": 1
  }
}