{
  "contractName": "Operator",
  "abi": [
    {
      "inputs": [
        {
          "internalType": "address",
          "name": "_feeManager",
          "type": "address"
        },
        {
          "internalType": "address",
          "name": "_feeRecipient",
          "type": "address"
        }
      ],
      "stateMutability": "nonpayable",
      "type": "constructor"
    },
    {
      "anonymous": false,
      "inputs": [
        {
          "indexed": false,
          "internalType": "address",
          "name": "from",
          "type": "address"
        },
        {
          "indexed": false,
          "internalType": "address",
          "name": "to",
          "type": "address"
        },
        {
          "indexed": false,
          "internalType": "uint256",
          "name": "tokenId",
          "type": "uint256"
        }
      ],
      "name": "ItemGifted",
      "type": "event"
    },
    {
      "anonymous": false,
      "inputs": [
        {
          "indexed": true,
          "internalType": "address",
          "name": "previousOwner",
          "type": "address"
        },
        {
          "indexed": true,
          "internalType": "address",
          "name": "newOwner",
          "type": "address"
        }
      ],
      "name": "OwnershipTransferred",
      "type": "event"
    },
    {
      "anonymous": false,
      "inputs": [
        {
          "indexed": false,
          "internalType": "address",
          "name": "from",
          "type": "address"
        },
        {
          "indexed": false,
          "internalType": "address",
          "name": "to",
          "type": "address"
        },
        {
          "indexed": false,
          "internalType": "uint256",
          "name": "amount",
          "type": "uint256"
        }
      ],
      "name": "RoyaltyTransferred",
      "type": "event"
    },
    {
      "anonymous": false,
      "inputs": [
        {
          "indexed": false,
          "internalType": "address",
          "name": "from",
          "type": "address"
        },
        {
          "indexed": false,
          "internalType": "address",
          "name": "to",
          "type": "address"
        },
        {
          "indexed": false,
          "internalType": "uint256",
          "name": "tokenId",
          "type": "uint256"
        }
      ],
      "name": "SaleAwarded",
      "type": "event"
    },
    {
      "inputs": [],
      "name": "owner",
      "outputs": [
        {
          "internalType": "address",
          "name": "",
          "type": "address"
        }
      ],
      "stateMutability": "view",
      "type": "function",
      "constant": true
    },
    {
      "inputs": [],
      "name": "renounceOwnership",
      "outputs": [],
      "stateMutability": "nonpayable",
      "type": "function"
    },
    {
      "inputs": [
        {
          "internalType": "address",
          "name": "newOwner",
          "type": "address"
        }
      ],
      "name": "transferOwnership",
      "outputs": [],
      "stateMutability": "nonpayable",
      "type": "function"
    },
    {
      "inputs": [
        {
          "internalType": "address",
          "name": "_feeManager",
          "type": "address"
        }
      ],
      "name": "changeFeeManager",
      "outputs": [],
      "stateMutability": "nonpayable",
      "type": "function"
    },
    {
      "inputs": [
        {
          "internalType": "address",
          "name": "_feeRecipient",
          "type": "address"
        }
      ],
      "name": "changeFeeRecipient",
      "outputs": [],
      "stateMutability": "nonpayable",
      "type": "function"
    },
    {
      "inputs": [],
      "name": "getFeeManager",
      "outputs": [
        {
          "internalType": "address",
          "name": "",
          "type": "address"
        }
      ],
      "stateMutability": "view",
      "type": "function",
      "constant": true
    },
    {
      "inputs": [],
      "name": "getFeeRecipient",
      "outputs": [
        {
          "internalType": "address",
          "name": "",
          "type": "address"
        }
      ],
      "stateMutability": "view",
      "type": "function",
      "constant": true
    },
    {
      "inputs": [
        {
          "internalType": "uint256",
          "name": "tokenId",
          "type": "uint256"
        },
        {
          "internalType": "address",
          "name": "buyer",
          "type": "address"
        },
        {
          "internalType": "uint256",
          "name": "price",
          "type": "uint256"
        },
        {
          "internalType": "address",
          "name": "nftContract",
          "type": "address"
        },
        {
          "internalType": "address",
          "name": "owner",
          "type": "address"
        },
        {
          "internalType": "address",
          "name": "currency",
          "type": "address"
        }
      ],
      "name": "awardItem",
      "outputs": [],
      "stateMutability": "nonpayable",
      "type": "function"
    },
    {
      "inputs": [
        {
          "internalType": "uint256",
          "name": "tokenId",
          "type": "uint256"
        },
        {
          "internalType": "address",
          "name": "receiver",
          "type": "address"
        },
        {
          "internalType": "address",
          "name": "nftContract",
          "type": "address"
        },
        {
          "internalType": "address",
          "name": "owner",
          "type": "address"
        }
      ],
      "name": "giftItem",
      "outputs": [],
      "stateMutability": "nonpayable",
      "type": "function"
    }
  ],
  "bytecode": "0x608060405234801561001057600080fd5b50604051610e74380380610e7483398101604081905261002f916100bd565b600080546001600160a01b031916339081178255604051909182917f8be0079c531659141344cd1fd0a4f28419497f9722a3daafe3b4186f6b6457e0908290a350600180546001600160a01b039384166001600160a01b031991821617909155600280549290931691161790556100ef565b80516001600160a01b03811681146100b857600080fd5b919050565b600080604083850312156100cf578182fd5b6100d8836100a1565b91506100e6602084016100a1565b90509250929050565b610d76806100fe6000396000f3fe608060405234801561001057600080fd5b50600436106100935760003560e01c80638da5cb5b116100665780638da5cb5b146100ec578063a53b4dcf146100fd578063bfc810b614610110578063f2d6382614610123578063f2fde38b1461012b57600080fd5b806323604071146100985780634ccb20c0146100ad578063715018a6146100d157806375e91fd4146100d9575b600080fd5b6100ab6100a6366004610b1a565b61013e565b005b6100b5610193565b6040516001600160a01b03909116815260200160405180910390f35b6100ab6101ce565b6100ab6100e7366004610bf4565b610242565b6000546001600160a01b03166100b5565b6100ab61010b366004610ba2565b610824565b6100ab61011e366004610b1a565b6109a9565b6100b56109f5565b6100ab610139366004610b1a565b610a30565b6000546001600160a01b031633146101715760405162461bcd60e51b815260040161016890610c87565b60405180910390fd5b600280546001600160a01b0319166001600160a01b0392909216919091179055565b600080546001600160a01b031633146101be5760405162461bcd60e51b815260040161016890610c87565b506002546001600160a01b031690565b6000546001600160a01b031633146101f85760405162461bcd60e51b815260040161016890610c87565b600080546040516001600160a01b03909116907f8be0079c531659141344cd1fd0a4f28419497f9722a3daafe3b4186f6b6457e0908390a3600080546001600160a01b0319169055565b6000546001600160a01b0316331461026c5760405162461bcd60e51b815260040161016890610c87565b6001600160a01b0385166102c25760405162461bcd60e51b815260206004820181905260248201527f42757965722063616e6e6f7420626520746865207a65726f20616464726573736044820152606401610168565b6001600160a01b0382166103185760405162461bcd60e51b815260206004820181905260248201527f4f776e65722063616e6e6f7420626520746865207a65726f20616464726573736044820152606401610168565b600084116103725760405162461bcd60e51b815260206004820152602160248201527f50726963652073686f756c642062652067726561746572207468616e207a65726044820152606f60f81b6064820152608401610168565b6040516301ffc9a760e01b815263152a902d60e11b600482015260009081906001600160a01b038616906301ffc9a79060240160206040518083038186803b1580156103bd57600080fd5b505afa1580156103d1573d6000803e3d6000fd5b505050506040513d601f19601f820116820180604052508101906103f59190610b6a565b156104a45760405163152a902d60e11b8152600481018990526024810187905260009081906001600160a01b03881690632a55205a90604401604080518083038186803b15801561044557600080fd5b505afa158015610459573d6000803e3d6000fd5b505050506040513d601f19601f8201168201806040525081019061047d9190610b3d565b91509150816001600160a01b0316866001600160a01b0316146104a1578193508092505b50505b60015460405163468c75a160e01b81526001600160a01b038681166004830152600092169063468c75a19060240160206040518083038186803b1580156104ea57600080fd5b505afa1580156104fe573d6000803e3d6000fd5b505050506040513d601f19601f820116820180604052508101906105229190610b8a565b90506000811161056d5760405162461bcd60e51b81526020600482015260166024820152750436f6d6d697373696f6e2063616e6e6f7420626520360541b6044820152606401610168565b600061271061057c838a610cdc565b6105869190610cbc565b9050600083610595838b610cfb565b61059f9190610cfb565b6040516323b872dd60e01b81529091506001600160a01b038716906323b872dd906105d2908d908b908690600401610c63565b602060405180830381600087803b1580156105ec57600080fd5b505af1158015610600573d6000803e3d6000fd5b505050506040513d601f19601f820116820180604052508101906106249190610b6a565b506002546040516323b872dd60e01b81526001600160a01b03808916926323b872dd92610659928f9216908790600401610c63565b602060405180830381600087803b15801561067357600080fd5b505af1158015610687573d6000803e3d6000fd5b505050506040513d601f19601f820116820180604052508101906106ab9190610b6a565b506001600160a01b0385161561077a576040516323b872dd60e01b81526001600160a01b038716906323b872dd906106eb908d9089908990600401610c63565b602060405180830381600087803b15801561070557600080fd5b505af1158015610719573d6000803e3d6000fd5b505050506040513d601f19601f8201168201806040525081019061073d9190610b6a565b507f322603e9150f2968d9fa784f087989ca74aef40bd4922ef9cd8701b61d3a58a28a868660405161077193929190610c63565b60405180910390a15b876001600160a01b03166342842e0e888c8e6040518463ffffffff1660e01b81526004016107aa93929190610c63565b600060405180830381600087803b1580156107c457600080fd5b505af11580156107d8573d6000803e3d6000fd5b505050507fe16bf114d42e1c89fce0154b6d5c527b5b11b50e59080f64279c696652bb0491878b8d60405161080f93929190610c63565b60405180910390a15050505050505050505050565b6000546001600160a01b0316331461084e5760405162461bcd60e51b815260040161016890610c87565b6001600160a01b0383166108b05760405162461bcd60e51b815260206004820152602360248201527f72656365697665722063616e6e6f7420626520746865207a65726f206164647260448201526265737360e81b6064820152608401610168565b6001600160a01b0381166109065760405162461bcd60e51b815260206004820181905260248201527f4f776e65722063616e6e6f7420626520746865207a65726f20616464726573736044820152606401610168565b604051632142170760e11b81526001600160a01b038316906342842e0e9061093690849087908990600401610c63565b600060405180830381600087803b15801561095057600080fd5b505af1158015610964573d6000803e3d6000fd5b505050507f4c1150bc499101dd9cf2ef089d84734f6abdbd75f56161fd6757f6e3a467e43e81848660405161099b93929190610c63565b60405180910390a150505050565b6000546001600160a01b031633146109d35760405162461bcd60e51b815260040161016890610c87565b600180546001600160a01b0319166001600160a01b0392909216919091179055565b600080546001600160a01b03163314610a205760405162461bcd60e51b815260040161016890610c87565b506001546001600160a01b031690565b6000546001600160a01b03163314610a5a5760405162461bcd60e51b815260040161016890610c87565b6001600160a01b038116610abf5760405162461bcd60e51b815260206004820152602660248201527f4f776e61626c653a206e6577206f776e657220697320746865207a65726f206160448201526564647265737360d01b6064820152608401610168565b600080546040516001600160a01b03808516939216917f8be0079c531659141344cd1fd0a4f28419497f9722a3daafe3b4186f6b6457e091a3600080546001600160a01b0319166001600160a01b0392909216919091179055565b600060208284031215610b2b578081fd5b8135610b3681610d28565b9392505050565b60008060408385031215610b4f578081fd5b8251610b5a81610d28565b6020939093015192949293505050565b600060208284031215610b7b578081fd5b81518015158114610b36578182fd5b600060208284031215610b9b578081fd5b5051919050565b60008060008060808587031215610bb7578182fd5b843593506020850135610bc981610d28565b92506040850135610bd981610d28565b91506060850135610be981610d28565b939692955090935050565b60008060008060008060c08789031215610c0c578182fd5b863595506020870135610c1e81610d28565b9450604087013593506060870135610c3581610d28565b92506080870135610c4581610d28565b915060a0870135610c5581610d28565b809150509295509295509295565b6001600160a01b039384168152919092166020820152604081019190915260600190565b6020808252818101527f4f776e61626c653a2063616c6c6572206973206e6f7420746865206f776e6572604082015260600190565b600082610cd757634e487b7160e01b81526012600452602481fd5b500490565b6000816000190483118215151615610cf657610cf6610d12565b500290565b600082821015610d0d57610d0d610d12565b500390565b634e487b7160e01b600052601160045260246000fd5b6001600160a01b0381168114610d3d57600080fd5b5056fea2646970667358221220c65e000f952731ede6e31a8cc806ec5ed296d8dc9269646991ea7ecba71edece64736f6c63430008040033",
  "immutableReferences": {},
  "source": "// contracts/GLDToken.sol\n// SPDX-License-Identifier: MIT\npragma solidity ^0.8.0;\n\nimport \"@openzeppelin/contracts/token/ERC20/ERC20.sol\";\nimport \"@openzeppelin/contracts/token/ERC721/ERC721.sol\";\nimport \"./FeeManager.sol\";\nimport \"@openzeppelin/contracts/access/Ownable.sol\";\nimport \"./IERC2981Royalties.sol\";\nimport '@openzeppelin/contracts/utils/introspection/ERC165.sol';\n\ncontract Operator is Ownable {\n    address private feeManager;\n    address private feeRecipient;\n\n    event SaleAwarded(address from, address to, uint tokenId);\n    event ItemGifted(address from, address to, uint tokenId);\n    event RoyaltyTransferred(address from, address to, uint amount);\n\n    constructor(address _feeManager, address _feeRecipient) {\n        feeManager = _feeManager;\n        feeRecipient = _feeRecipient;\n    }\n\n    function changeFeeManager(address _feeManager) public onlyOwner {\n        feeManager = _feeManager;\n    }\n\n    function changeFeeRecipient(address _feeRecipient) public onlyOwner {\n        feeRecipient = _feeRecipient;\n    }\n\n    function getFeeManager() public view onlyOwner returns(address) {\n        return feeManager;\n    }\n\n    function getFeeRecipient() public view onlyOwner returns(address) {\n        return feeRecipient;\n    }\n\n    function awardItem(uint tokenId, address buyer, uint price, address nftContract, address owner, address currency) public onlyOwner {\n        require(buyer != address(0), \"Buyer cannot be the zero address\");\n        require(owner != address(0), \"Owner cannot be the zero address\");\n        require(price > 0, \"Price should be greater than zero\");\n\n        address receiver = address(0);\n        uint royaltyAmount = 0;\n\n\n        if(ERC165(nftContract).supportsInterface(type(IERC2981Royalties).interfaceId)){\n            (address _receiver, uint256 _royaltyAmount) = IERC2981Royalties(nftContract).royaltyInfo(tokenId, price);\n\n            if(owner != _receiver){\n                receiver = _receiver;\n                royaltyAmount = _royaltyAmount;\n            }            \n        }\n\n        uint commission = FeeManager(feeManager).getPartnerFee(owner);\n        require(commission > 0, \"Commission cannot be 0\");\n        uint fee = price * commission /10000;\n        uint amount = price - fee - royaltyAmount;\n\n        ERC20(currency).transferFrom(buyer, owner, amount);\n        ERC20(currency).transferFrom(buyer, feeRecipient, fee);\n        if(receiver != address(0)){\n            ERC20(currency).transferFrom(buyer, receiver, royaltyAmount);\n            emit RoyaltyTransferred(buyer, receiver, royaltyAmount);\n        }\n        ERC721(nftContract).safeTransferFrom(owner, buyer, tokenId);\n        emit SaleAwarded(owner, buyer, tokenId);\n    }\n\n    // TODO: To be tested\n    function giftItem(uint tokenId, address receiver, address nftContract, address owner) public onlyOwner {\n        require(receiver != address(0), \"receiver cannot be the zero address\");\n        require(owner != address(0), \"Owner cannot be the zero address\");\n\n        ERC721(nftContract).safeTransferFrom(owner, receiver, tokenId);\n        emit ItemGifted(owner, receiver, tokenId);\n    }\n}",
  "sourcePath": "/Users/yannick/Desktop/rarepornio/src/contracts/Operator.sol",
  "compiler": {
    "name": "solc",
    "version": "0.8.4+commit.c7e474f2.Emscripten.clang"
  },
  "schemaVersion": "3.3.4",
  "updatedAt": "2021-07-02T16:06:06.880Z",
  "networkType": "ethereum",
  "devdoc": {
    "kind": "dev",
    "methods": {
      "owner()": {
        "details": "Returns the address of the current owner."
      },
      "renounceOwnership()": {
        "details": "Leaves the contract without owner. It will not be possible to call `onlyOwner` functions anymore. Can only be called by the current owner. NOTE: Renouncing ownership will leave the contract without an owner, thereby removing any functionality that is only available to the owner."
      },
      "transferOwnership(address)": {
        "details": "Transfers ownership of the contract to a new account (`newOwner`). Can only be called by the current owner."
      }
    },
    "version": 1
  },
  "userdoc": {
    "kind": "user",
    "methods": {},
    "version": 1
  }
}