{
  "contractName": "Operator",
  "abi": [
    {
      "inputs": [
        {
          "internalType": "address",
          "name": "_currency",
          "type": "address"
        },
        {
          "internalType": "address",
          "name": "_feeManager",
          "type": "address"
        },
        {
          "internalType": "address",
          "name": "recipient",
          "type": "address"
        }
      ],
      "stateMutability": "nonpayable",
      "type": "constructor"
    },
    {
      "anonymous": false,
      "inputs": [
        {
          "indexed": true,
          "internalType": "address",
          "name": "previousOwner",
          "type": "address"
        },
        {
          "indexed": true,
          "internalType": "address",
          "name": "newOwner",
          "type": "address"
        }
      ],
      "name": "OwnershipTransferred",
      "type": "event"
    },
    {
      "anonymous": false,
      "inputs": [
        {
          "indexed": false,
          "internalType": "address",
          "name": "from",
          "type": "address"
        },
        {
          "indexed": false,
          "internalType": "address",
          "name": "to",
          "type": "address"
        },
        {
          "indexed": false,
          "internalType": "uint256",
          "name": "tokenId",
          "type": "uint256"
        }
      ],
      "name": "SaleAwarded",
      "type": "event"
    },
    {
      "inputs": [],
      "name": "owner",
      "outputs": [
        {
          "internalType": "address",
          "name": "",
          "type": "address"
        }
      ],
      "stateMutability": "view",
      "type": "function",
      "constant": true
    },
    {
      "inputs": [],
      "name": "renounceOwnership",
      "outputs": [],
      "stateMutability": "nonpayable",
      "type": "function"
    },
    {
      "inputs": [
        {
          "internalType": "address",
          "name": "newOwner",
          "type": "address"
        }
      ],
      "name": "transferOwnership",
      "outputs": [],
      "stateMutability": "nonpayable",
      "type": "function"
    },
    {
      "inputs": [
        {
          "internalType": "address",
          "name": "_currency",
          "type": "address"
        }
      ],
      "name": "changeCurrency",
      "outputs": [],
      "stateMutability": "nonpayable",
      "type": "function"
    },
    {
      "inputs": [
        {
          "internalType": "address",
          "name": "_feeManager",
          "type": "address"
        }
      ],
      "name": "changeFeeManager",
      "outputs": [],
      "stateMutability": "nonpayable",
      "type": "function"
    },
    {
      "inputs": [
        {
          "internalType": "address",
          "name": "recipient",
          "type": "address"
        }
      ],
      "name": "changeFeeRecipient",
      "outputs": [],
      "stateMutability": "nonpayable",
      "type": "function"
    },
    {
      "inputs": [],
      "name": "getCurrency",
      "outputs": [
        {
          "internalType": "address",
          "name": "",
          "type": "address"
        }
      ],
      "stateMutability": "view",
      "type": "function",
      "constant": true
    },
    {
      "inputs": [],
      "name": "getFeeManager",
      "outputs": [
        {
          "internalType": "address",
          "name": "",
          "type": "address"
        }
      ],
      "stateMutability": "view",
      "type": "function",
      "constant": true
    },
    {
      "inputs": [],
      "name": "getFeeRecipient",
      "outputs": [
        {
          "internalType": "address",
          "name": "",
          "type": "address"
        }
      ],
      "stateMutability": "view",
      "type": "function",
      "constant": true
    },
    {
      "inputs": [
        {
          "internalType": "uint256",
          "name": "tokenId",
          "type": "uint256"
        },
        {
          "internalType": "address",
          "name": "buyer",
          "type": "address"
        },
        {
          "internalType": "uint256",
          "name": "price",
          "type": "uint256"
        },
        {
          "internalType": "address",
          "name": "nftContract",
          "type": "address"
        },
        {
          "internalType": "address",
          "name": "owner",
          "type": "address"
        }
      ],
      "name": "awardItem",
      "outputs": [],
      "stateMutability": "nonpayable",
      "type": "function"
    }
  ],
  "bytecode": "0x608060405234801561001057600080fd5b50604051610b0d380380610b0d83398101604081905261002f916100ce565b600080546001600160a01b031916339081178255604051909182917f8be0079c531659141344cd1fd0a4f28419497f9722a3daafe3b4186f6b6457e0908290a350600180546001600160a01b039485166001600160a01b031991821617909155600280549385169382169390931790925560038054919093169116179055610110565b80516001600160a01b03811681146100c957600080fd5b919050565b6000806000606084860312156100e2578283fd5b6100eb846100b2565b92506100f9602085016100b2565b9150610107604085016100b2565b90509250925092565b6109ee8061011f6000396000f3fe608060405234801561001057600080fd5b506004361061009e5760003560e01c8063715018a611610066578063715018a61461010a5780638da5cb5b14610112578063bfc810b614610123578063f2d6382614610136578063f2fde38b1461013e57600080fd5b8063090346e3146100a357806323604071146100b85780634ccb20c0146100cb5780636945c1fd146100ef5780636e55ff9a146100f7575b600080fd5b6100b66100b136600461089d565b610151565b005b6100b66100c6366004610844565b610535565b6100d3610581565b6040516001600160a01b03909116815260200160405180910390f35b6100d36105bc565b6100b6610105366004610844565b6105f7565b6100b6610643565b6000546001600160a01b03166100d3565b6100b6610131366004610844565b6106b7565b6100d3610703565b6100b661014c366004610844565b61073e565b6000546001600160a01b031633146101845760405162461bcd60e51b815260040161017b90610917565b60405180910390fd5b6001600160a01b0384166101da5760405162461bcd60e51b815260206004820181905260248201527f42757965722063616e6e6f7420626520746865207a65726f2061646472657373604482015260640161017b565b6001600160a01b0381166102305760405162461bcd60e51b815260206004820181905260248201527f4f776e65722063616e6e6f7420626520746865207a65726f2061646472657373604482015260640161017b565b6000831161028a5760405162461bcd60e51b815260206004820152602160248201527f50726963652073686f756c642062652067726561746572207468616e207a65726044820152606f60f81b606482015260840161017b565b60025460405163468c75a160e01b81526001600160a01b038381166004830152600092169063468c75a19060240160206040518083038186803b1580156102d057600080fd5b505afa1580156102e4573d6000803e3d6000fd5b505050506040513d601f19601f820116820180604052508101906103089190610885565b9050600081116103535760405162461bcd60e51b81526020600482015260166024820152750436f6d6d697373696f6e2063616e6e6f7420626520360541b604482015260640161017b565b6000612710610362838761096c565b61036c919061094c565b9050600061037a828761098b565b6001546040516323b872dd60e01b81529192506001600160a01b0316906323b872dd906103af908a90889086906004016108f3565b602060405180830381600087803b1580156103c957600080fd5b505af11580156103dd573d6000803e3d6000fd5b505050506040513d601f19601f820116820180604052508101906104019190610865565b506001546003546040516323b872dd60e01b81526001600160a01b03928316926323b872dd9261043b928c929091169087906004016108f3565b602060405180830381600087803b15801561045557600080fd5b505af1158015610469573d6000803e3d6000fd5b505050506040513d601f19601f8201168201806040525081019061048d9190610865565b50604051632142170760e11b81526001600160a01b038616906342842e0e906104be9087908b908d906004016108f3565b600060405180830381600087803b1580156104d857600080fd5b505af11580156104ec573d6000803e3d6000fd5b505050507fe16bf114d42e1c89fce0154b6d5c527b5b11b50e59080f64279c696652bb049184888a604051610523939291906108f3565b60405180910390a15050505050505050565b6000546001600160a01b0316331461055f5760405162461bcd60e51b815260040161017b90610917565b600380546001600160a01b0319166001600160a01b0392909216919091179055565b600080546001600160a01b031633146105ac5760405162461bcd60e51b815260040161017b90610917565b506003546001600160a01b031690565b600080546001600160a01b031633146105e75760405162461bcd60e51b815260040161017b90610917565b506001546001600160a01b031690565b6000546001600160a01b031633146106215760405162461bcd60e51b815260040161017b90610917565b600180546001600160a01b0319166001600160a01b0392909216919091179055565b6000546001600160a01b0316331461066d5760405162461bcd60e51b815260040161017b90610917565b600080546040516001600160a01b03909116907f8be0079c531659141344cd1fd0a4f28419497f9722a3daafe3b4186f6b6457e0908390a3600080546001600160a01b0319169055565b6000546001600160a01b031633146106e15760405162461bcd60e51b815260040161017b90610917565b600280546001600160a01b0319166001600160a01b0392909216919091179055565b600080546001600160a01b0316331461072e5760405162461bcd60e51b815260040161017b90610917565b506002546001600160a01b031690565b6000546001600160a01b031633146107685760405162461bcd60e51b815260040161017b90610917565b6001600160a01b0381166107cd5760405162461bcd60e51b815260206004820152602660248201527f4f776e61626c653a206e6577206f776e657220697320746865207a65726f206160448201526564647265737360d01b606482015260840161017b565b600080546040516001600160a01b03808516939216917f8be0079c531659141344cd1fd0a4f28419497f9722a3daafe3b4186f6b6457e091a3600080546001600160a01b0319166001600160a01b0392909216919091179055565b80356001600160a01b038116811461083f57600080fd5b919050565b600060208284031215610855578081fd5b61085e82610828565b9392505050565b600060208284031215610876578081fd5b8151801515811461085e578182fd5b600060208284031215610896578081fd5b5051919050565b600080600080600060a086880312156108b4578081fd5b853594506108c460208701610828565b9350604086013592506108d960608701610828565b91506108e760808701610828565b90509295509295909350565b6001600160a01b039384168152919092166020820152604081019190915260600190565b6020808252818101527f4f776e61626c653a2063616c6c6572206973206e6f7420746865206f776e6572604082015260600190565b60008261096757634e487b7160e01b81526012600452602481fd5b500490565b6000816000190483118215151615610986576109866109a2565b500290565b60008282101561099d5761099d6109a2565b500390565b634e487b7160e01b600052601160045260246000fdfea2646970667358221220b43bc4e5d9dc5f36d42e0cffd764404211ceb2230877a7c2d22310d18d29d23a64736f6c63430008040033",
  "immutableReferences": {},
  "source": "// contracts/GLDToken.sol\n// SPDX-License-Identifier: MIT\npragma solidity ^0.8.0;\n\nimport \"@openzeppelin/contracts/token/ERC20/ERC20.sol\";\nimport \"@openzeppelin/contracts/token/ERC721/ERC721.sol\";\nimport \"./FeeManager.sol\";\nimport \"@openzeppelin/contracts/access/Ownable.sol\";\n\ncontract Operator is Ownable {\n    address private currency;\n    address private feeManager;\n    address private tokenRecipient;\n\n    event SaleAwarded(address from, address to, uint tokenId);\n    \n    constructor(address _currency, address _feeManager, address recipient) {\n        currency = _currency;\n        feeManager = _feeManager;\n        tokenRecipient = recipient;\n    }\n\n    function changeCurrency(address _currency) public onlyOwner {\n        currency = _currency;\n    }\n\n    function changeFeeManager(address _feeManager) public onlyOwner {\n        feeManager = _feeManager;\n    }\n\n    function changeFeeRecipient(address recipient) public onlyOwner {\n        tokenRecipient = recipient;\n    }\n\n    function getCurrency() public view onlyOwner returns(address)  {\n        return currency;\n    }\n\n    function getFeeManager() public view onlyOwner returns(address) {\n        return feeManager;\n    }\n\n    function getFeeRecipient() public view onlyOwner returns(address) {\n        return tokenRecipient;\n    }\n\n    function awardItem(uint tokenId, address buyer, uint price, address nftContract, address owner) public onlyOwner {\n        require(buyer != address(0), \"Buyer cannot be the zero address\");\n        require(owner != address(0), \"Owner cannot be the zero address\");\n        require(price > 0, \"Price should be greater than zero\");\n\n        uint commission = FeeManager(feeManager).getPartnerFee(owner);\n        require(commission > 0, \"Commission cannot be 0\");\n        uint fee = price * commission /10000;\n        uint amount = price - fee;\n\n        ERC20(currency).transferFrom(buyer, owner, amount);\n        ERC20(currency).transferFrom(buyer, tokenRecipient, fee);\n        ERC721(nftContract).safeTransferFrom(owner, buyer, tokenId);\n        emit SaleAwarded(owner, buyer, tokenId);\n    }\n}",
  "sourcePath": "/Users/yannick/Desktop/rarepornio/src/contracts/Operator.sol",
  "compiler": {
    "name": "solc",
    "version": "0.8.4+commit.c7e474f2.Emscripten.clang"
  },
  "schemaVersion": "3.3.4",
  "updatedAt": "2021-06-15T14:05:06.107Z",
  "networkType": "ethereum",
  "devdoc": {
    "kind": "dev",
    "methods": {
      "owner()": {
        "details": "Returns the address of the current owner."
      },
      "renounceOwnership()": {
        "details": "Leaves the contract without owner. It will not be possible to call `onlyOwner` functions anymore. Can only be called by the current owner. NOTE: Renouncing ownership will leave the contract without an owner, thereby removing any functionality that is only available to the owner."
      },
      "transferOwnership(address)": {
        "details": "Transfers ownership of the contract to a new account (`newOwner`). Can only be called by the current owner."
      }
    },
    "version": 1
  },
  "userdoc": {
    "kind": "user",
    "methods": {},
    "version": 1
  }
}